{
  "_format": "hh-sol-artifact-1",
  "contractName": "EvenStar",
  "sourceName": "contracts/EvenStar.sol",
  "abi": [
    {
      "inputs": [
        {
          "internalType": "address",
          "name": "_evenStarPOA",
          "type": "address"
        },
        {
          "internalType": "address",
          "name": "_paymentToken",
          "type": "address"
        },
        {
          "internalType": "address",
          "name": "_owner",
          "type": "address"
        }
      ],
      "stateMutability": "nonpayable",
      "type": "constructor"
    },
    {
      "anonymous": false,
      "inputs": [
        {
          "indexed": true,
          "internalType": "uint256",
          "name": "eventId",
          "type": "uint256"
        }
      ],
      "name": "EventArchived",
      "type": "event"
    },
    {
      "anonymous": false,
      "inputs": [
        {
          "indexed": true,
          "internalType": "uint256",
          "name": "eventId",
          "type": "uint256"
        },
        {
          "indexed": true,
          "internalType": "string",
          "name": "title",
          "type": "string"
        },
        {
          "indexed": true,
          "internalType": "address",
          "name": "creator",
          "type": "address"
        }
      ],
      "name": "EventCreated",
      "type": "event"
    },
    {
      "anonymous": false,
      "inputs": [
        {
          "indexed": true,
          "internalType": "uint256",
          "name": "eventId",
          "type": "uint256"
        }
      ],
      "name": "EventRemoved",
      "type": "event"
    },
    {
      "anonymous": false,
      "inputs": [
        {
          "indexed": true,
          "internalType": "uint256",
          "name": "eventId",
          "type": "uint256"
        },
        {
          "indexed": true,
          "internalType": "address",
          "name": "userAddress",
          "type": "address"
        }
      ],
      "name": "EventSignup",
      "type": "event"
    },
    {
      "anonymous": false,
      "inputs": [
        {
          "indexed": true,
          "internalType": "address",
          "name": "userAddress",
          "type": "address"
        },
        {
          "indexed": true,
          "internalType": "uint256",
          "name": "userId",
          "type": "uint256"
        }
      ],
      "name": "UserRegistered",
      "type": "event"
    },
    {
      "inputs": [
        {
          "internalType": "uint256",
          "name": "id",
          "type": "uint256"
        }
      ],
      "name": "archiveEvent",
      "outputs": [],
      "stateMutability": "nonpayable",
      "type": "function"
    },
    {
      "inputs": [
        {
          "internalType": "string",
          "name": "_title",
          "type": "string"
        },
        {
          "internalType": "string",
          "name": "_desc",
          "type": "string"
        },
        {
          "internalType": "uint256",
          "name": "_date",
          "type": "uint256"
        },
        {
          "internalType": "uint256",
          "name": "_time",
          "type": "uint256"
        },
        {
          "internalType": "string",
          "name": "_location",
          "type": "string"
        },
        {
          "internalType": "uint256",
          "name": "_duration",
          "type": "uint256"
        },
        {
          "internalType": "string",
          "name": "_url",
          "type": "string"
        },
        {
          "internalType": "uint256",
          "name": "_ticket",
          "type": "uint256"
        },
        {
          "internalType": "enum EvenStar.EventCategorys",
          "name": "_category",
          "type": "uint8"
        },
        {
          "internalType": "string",
          "name": "_eventArt",
          "type": "string"
        }
      ],
      "name": "createEvent",
      "outputs": [],
      "stateMutability": "nonpayable",
      "type": "function"
    },
    {
      "inputs": [
        {
          "internalType": "uint256",
          "name": "id",
          "type": "uint256"
        }
      ],
      "name": "eventSignup",
      "outputs": [],
      "stateMutability": "nonpayable",
      "type": "function"
    },
    {
      "inputs": [],
      "name": "getAllEvents",
      "outputs": [
        {
          "components": [
            {
              "internalType": "uint256",
              "name": "id",
              "type": "uint256"
            },
            {
              "internalType": "string",
              "name": "title",
              "type": "string"
            },
            {
              "internalType": "string",
              "name": "desc",
              "type": "string"
            },
            {
              "internalType": "uint256",
              "name": "date",
              "type": "uint256"
            },
            {
              "internalType": "uint256",
              "name": "time",
              "type": "uint256"
            },
            {
              "internalType": "string",
              "name": "location",
              "type": "string"
            },
            {
              "internalType": "uint256",
              "name": "duration",
              "type": "uint256"
            },
            {
              "internalType": "string",
              "name": "url",
              "type": "string"
            },
            {
              "internalType": "uint256",
              "name": "ticket",
              "type": "uint256"
            },
            {
              "internalType": "enum EvenStar.EventCategorys",
              "name": "category",
              "type": "uint8"
            },
            {
              "internalType": "bool",
              "name": "isActive",
              "type": "bool"
            },
            {
              "internalType": "address",
              "name": "creator",
              "type": "address"
            },
            {
              "internalType": "string",
              "name": "eventArt",
              "type": "string"
            }
          ],
          "internalType": "struct EvenStar.Program[]",
          "name": "",
          "type": "tuple[]"
        }
      ],
      "stateMutability": "view",
      "type": "function"
    },
    {
      "inputs": [
        {
          "internalType": "uint256",
          "name": "eventId",
          "type": "uint256"
        }
      ],
      "name": "getEventAttendees",
      "outputs": [
        {
          "internalType": "address[]",
          "name": "",
          "type": "address[]"
        }
      ],
      "stateMutability": "view",
      "type": "function"
    },
    {
      "inputs": [
        {
          "internalType": "enum EvenStar.EventCategorys",
          "name": "_category",
          "type": "uint8"
        }
      ],
      "name": "getEventsByCategory",
      "outputs": [
        {
          "components": [
            {
              "internalType": "uint256",
              "name": "id",
              "type": "uint256"
            },
            {
              "internalType": "string",
              "name": "title",
              "type": "string"
            },
            {
              "internalType": "string",
              "name": "desc",
              "type": "string"
            },
            {
              "internalType": "uint256",
              "name": "date",
              "type": "uint256"
            },
            {
              "internalType": "uint256",
              "name": "time",
              "type": "uint256"
            },
            {
              "internalType": "string",
              "name": "location",
              "type": "string"
            },
            {
              "internalType": "uint256",
              "name": "duration",
              "type": "uint256"
            },
            {
              "internalType": "string",
              "name": "url",
              "type": "string"
            },
            {
              "internalType": "uint256",
              "name": "ticket",
              "type": "uint256"
            },
            {
              "internalType": "enum EvenStar.EventCategorys",
              "name": "category",
              "type": "uint8"
            },
            {
              "internalType": "bool",
              "name": "isActive",
              "type": "bool"
            },
            {
              "internalType": "address",
              "name": "creator",
              "type": "address"
            },
            {
              "internalType": "string",
              "name": "eventArt",
              "type": "string"
            }
          ],
          "internalType": "struct EvenStar.Program[]",
          "name": "",
          "type": "tuple[]"
        }
      ],
      "stateMutability": "view",
      "type": "function"
    },
    {
      "inputs": [
        {
          "internalType": "uint256",
          "name": "id",
          "type": "uint256"
        }
      ],
      "name": "getUser",
      "outputs": [
        {
          "components": [
            {
              "internalType": "uint256",
              "name": "id",
              "type": "uint256"
            },
            {
              "internalType": "address",
              "name": "userAddress",
              "type": "address"
            },
            {
              "internalType": "bool",
              "name": "isRegistered",
              "type": "bool"
            }
          ],
          "internalType": "struct EvenStar.User",
          "name": "",
          "type": "tuple"
        }
      ],
      "stateMutability": "view",
      "type": "function"
    },
    {
      "inputs": [
        {
          "internalType": "address",
          "name": "_address",
          "type": "address"
        }
      ],
      "name": "getUserBalance",
      "outputs": [
        {
          "internalType": "uint256",
          "name": "",
          "type": "uint256"
        }
      ],
      "stateMutability": "view",
      "type": "function"
    },
    {
      "inputs": [],
      "name": "getUserBalance",
      "outputs": [
        {
          "internalType": "uint256",
          "name": "",
          "type": "uint256"
        }
      ],
      "stateMutability": "view",
      "type": "function"
    },
    {
      "inputs": [
        {
          "internalType": "uint256",
          "name": "id",
          "type": "uint256"
        }
      ],
      "name": "proofOfAttendance",
      "outputs": [],
      "stateMutability": "nonpayable",
      "type": "function"
    },
    {
      "inputs": [],
      "name": "registerUser",
      "outputs": [],
      "stateMutability": "nonpayable",
      "type": "function"
    },
    {
      "inputs": [
        {
          "internalType": "uint256",
          "name": "id",
          "type": "uint256"
        }
      ],
      "name": "removeEvent",
      "outputs": [],
      "stateMutability": "nonpayable",
      "type": "function"
    },
    {
      "inputs": [
        {
          "internalType": "uint256",
          "name": "id",
          "type": "uint256"
        },
        {
          "internalType": "string",
          "name": "_title",
          "type": "string"
        }
      ],
      "name": "searchEvent",
      "outputs": [
        {
          "components": [
            {
              "internalType": "uint256",
              "name": "id",
              "type": "uint256"
            },
            {
              "internalType": "string",
              "name": "title",
              "type": "string"
            },
            {
              "internalType": "string",
              "name": "desc",
              "type": "string"
            },
            {
              "internalType": "uint256",
              "name": "date",
              "type": "uint256"
            },
            {
              "internalType": "uint256",
              "name": "time",
              "type": "uint256"
            },
            {
              "internalType": "string",
              "name": "location",
              "type": "string"
            },
            {
              "internalType": "uint256",
              "name": "duration",
              "type": "uint256"
            },
            {
              "internalType": "string",
              "name": "url",
              "type": "string"
            },
            {
              "internalType": "uint256",
              "name": "ticket",
              "type": "uint256"
            },
            {
              "internalType": "enum EvenStar.EventCategorys",
              "name": "category",
              "type": "uint8"
            },
            {
              "internalType": "bool",
              "name": "isActive",
              "type": "bool"
            },
            {
              "internalType": "address",
              "name": "creator",
              "type": "address"
            },
            {
              "internalType": "string",
              "name": "eventArt",
              "type": "string"
            }
          ],
          "internalType": "struct EvenStar.Program",
          "name": "",
          "type": "tuple"
        }
      ],
      "stateMutability": "view",
      "type": "function"
    },
    {
      "inputs": [],
      "name": "searchFreeEvents",
      "outputs": [
        {
          "components": [
            {
              "internalType": "uint256",
              "name": "id",
              "type": "uint256"
            },
            {
              "internalType": "string",
              "name": "title",
              "type": "string"
            },
            {
              "internalType": "string",
              "name": "desc",
              "type": "string"
            },
            {
              "internalType": "uint256",
              "name": "date",
              "type": "uint256"
            },
            {
              "internalType": "uint256",
              "name": "time",
              "type": "uint256"
            },
            {
              "internalType": "string",
              "name": "location",
              "type": "string"
            },
            {
              "internalType": "uint256",
              "name": "duration",
              "type": "uint256"
            },
            {
              "internalType": "string",
              "name": "url",
              "type": "string"
            },
            {
              "internalType": "uint256",
              "name": "ticket",
              "type": "uint256"
            },
            {
              "internalType": "enum EvenStar.EventCategorys",
              "name": "category",
              "type": "uint8"
            },
            {
              "internalType": "bool",
              "name": "isActive",
              "type": "bool"
            },
            {
              "internalType": "address",
              "name": "creator",
              "type": "address"
            },
            {
              "internalType": "string",
              "name": "eventArt",
              "type": "string"
            }
          ],
          "internalType": "struct EvenStar.Program[]",
          "name": "",
          "type": "tuple[]"
        }
      ],
      "stateMutability": "view",
      "type": "function"
    },
    {
      "inputs": [],
      "name": "searchPaidEvents",
      "outputs": [
        {
          "components": [
            {
              "internalType": "uint256",
              "name": "id",
              "type": "uint256"
            },
            {
              "internalType": "string",
              "name": "title",
              "type": "string"
            },
            {
              "internalType": "string",
              "name": "desc",
              "type": "string"
            },
            {
              "internalType": "uint256",
              "name": "date",
              "type": "uint256"
            },
            {
              "internalType": "uint256",
              "name": "time",
              "type": "uint256"
            },
            {
              "internalType": "string",
              "name": "location",
              "type": "string"
            },
            {
              "internalType": "uint256",
              "name": "duration",
              "type": "uint256"
            },
            {
              "internalType": "string",
              "name": "url",
              "type": "string"
            },
            {
              "internalType": "uint256",
              "name": "ticket",
              "type": "uint256"
            },
            {
              "internalType": "enum EvenStar.EventCategorys",
              "name": "category",
              "type": "uint8"
            },
            {
              "internalType": "bool",
              "name": "isActive",
              "type": "bool"
            },
            {
              "internalType": "address",
              "name": "creator",
              "type": "address"
            },
            {
              "internalType": "string",
              "name": "eventArt",
              "type": "string"
            }
          ],
          "internalType": "struct EvenStar.Program[]",
          "name": "",
          "type": "tuple[]"
        }
      ],
      "stateMutability": "view",
      "type": "function"
    },
    {
      "inputs": [
        {
          "internalType": "uint256",
          "name": "id",
          "type": "uint256"
        },
        {
          "internalType": "string",
          "name": "_title",
          "type": "string"
        },
        {
          "internalType": "string",
          "name": "_desc",
          "type": "string"
        },
        {
          "internalType": "uint256",
          "name": "_date",
          "type": "uint256"
        },
        {
          "internalType": "uint256",
          "name": "_time",
          "type": "uint256"
        },
        {
          "internalType": "string",
          "name": "_location",
          "type": "string"
        },
        {
          "internalType": "uint256",
          "name": "_duration",
          "type": "uint256"
        },
        {
          "internalType": "string",
          "name": "_url",
          "type": "string"
        },
        {
          "internalType": "uint256",
          "name": "_ticket",
          "type": "uint256"
        },
        {
          "internalType": "string",
          "name": "_eventArt",
          "type": "string"
        }
      ],
      "name": "updateProgram",
      "outputs": [],
      "stateMutability": "nonpayable",
      "type": "function"
    }
  ],
  "bytecode": "0x60806040523480156200001157600080fd5b50604051620059fa380380620059fa83398181016040528101906200003791906200016c565b806000806101000a81548173ffffffffffffffffffffffffffffffffffffffff021916908373ffffffffffffffffffffffffffffffffffffffff16021790555082600160006101000a81548173ffffffffffffffffffffffffffffffffffffffff021916908373ffffffffffffffffffffffffffffffffffffffff16021790555081600260006101000a81548173ffffffffffffffffffffffffffffffffffffffff021916908373ffffffffffffffffffffffffffffffffffffffff160217905550505050620001c8565b600080fd5b600073ffffffffffffffffffffffffffffffffffffffff82169050919050565b6000620001348262000107565b9050919050565b620001468162000127565b81146200015257600080fd5b50565b60008151905062000166816200013b565b92915050565b60008060006060848603121562000188576200018762000102565b5b6000620001988682870162000155565b9350506020620001ab8682870162000155565b9250506040620001be8682870162000155565b9150509250925092565b61582280620001d86000396000f3fe608060405234801561001057600080fd5b50600436106101005760003560e01c806367a9797c11610097578063b0467deb11610066578063b0467deb14610297578063b7013dc1146102c7578063c27a500d146102e5578063f5dad5591461030357610100565b806367a9797c146102115780638412f6e51461022f5780638f08c4321461024b578063ad395c141461026757610100565b80634bd7811a116100d35780634bd7811a146101b15780634d3820eb146101cf57806352958be6146101d957806356164e1e146101f557610100565b806307727cb5146101055780633883688214610135578063477348921461016557806347aa5b4714610195575b600080fd5b61011f600480360381019061011a9190613f4c565b61031f565b60405161012c919061423e565b60405180910390f35b61014f600480360381019061014a9190614285565b610b85565b60405161015c91906144a9565b60405180910390f35b61017f600480360381019061017a91906144f7565b61117c565b60405161018c9190614533565b60405180910390f35b6101af60048036038101906101aa919061454e565b6112c3565b005b6101b9611872565b6040516101c691906144a9565b60405180910390f35b6101d7611d8f565b005b6101f360048036038101906101ee91906146b9565b612090565b005b61020f600480360381019061020a91906146b9565b612308565b005b6102196124f9565b60405161022691906144a9565b60405180910390f35b610249600480360381019061024491906146e6565b612a18565b005b610265600480360381019061026091906146b9565b612d30565b005b610281600480360381019061027c91906146b9565b613090565b60405161028e9190614900565b60405180910390f35b6102b160048036038101906102ac91906146b9565b6131bb565b6040516102be9190614964565b60405180910390f35b6102cf613263565b6040516102dc9190614533565b60405180910390f35b6102ed6132aa565b6040516102fa91906144a9565b60405180910390f35b61031d600480360381019061031891906146b9565b6136c2565b005b610327613c94565b6008805490508310801561035f5750826008848154811061034b5761034a61497f565b5b90600052602060002090600b020160000154145b1561075157600883815481106103785761037761497f565b5b90600052602060002090600b0201604051806101a0016040529081600082015481526020016001820180546103ac906149dd565b80601f01602080910402602001604051908101604052809291908181526020018280546103d8906149dd565b80156104255780601f106103fa57610100808354040283529160200191610425565b820191906000526020600020905b81548152906001019060200180831161040857829003601f168201915b5050505050815260200160028201805461043e906149dd565b80601f016020809104026020016040519081016040528092919081815260200182805461046a906149dd565b80156104b75780601f1061048c576101008083540402835291602001916104b7565b820191906000526020600020905b81548152906001019060200180831161049a57829003601f168201915b5050505050815260200160038201548152602001600482015481526020016005820180546104e4906149dd565b80601f0160208091040260200160405190810160405280929190818152602001828054610510906149dd565b801561055d5780601f106105325761010080835404028352916020019161055d565b820191906000526020600020905b81548152906001019060200180831161054057829003601f168201915b5050505050815260200160068201548152602001600782018054610580906149dd565b80601f01602080910402602001604051908101604052809291908181526020018280546105ac906149dd565b80156105f95780601f106105ce576101008083540402835291602001916105f9565b820191906000526020600020905b8154815290600101906020018083116105dc57829003601f168201915b50505050508152602001600882015481526020016009820160009054906101000a900460ff16600581111561063157610630614036565b5b600581111561064357610642614036565b5b81526020016009820160019054906101000a900460ff161515151581526020016009820160029054906101000a900473ffffffffffffffffffffffffffffffffffffffff1673ffffffffffffffffffffffffffffffffffffffff1673ffffffffffffffffffffffffffffffffffffffff168152602001600a820180546106c8906149dd565b80601f01602080910402602001604051908101604052809291908181526020018280546106f4906149dd565b80156107415780601f1061071657610100808354040283529160200191610741565b820191906000526020600020905b81548152906001019060200180831161072457829003601f168201915b5050505050815250509050610b7f565b600082511115610b4457600c8260405161076b9190614a4a565b9081526020016040518091039020604051806101a00160405290816000820154815260200160018201805461079f906149dd565b80601f01602080910402602001604051908101604052809291908181526020018280546107cb906149dd565b80156108185780601f106107ed57610100808354040283529160200191610818565b820191906000526020600020905b8154815290600101906020018083116107fb57829003601f168201915b50505050508152602001600282018054610831906149dd565b80601f016020809104026020016040519081016040528092919081815260200182805461085d906149dd565b80156108aa5780601f1061087f576101008083540402835291602001916108aa565b820191906000526020600020905b81548152906001019060200180831161088d57829003601f168201915b5050505050815260200160038201548152602001600482015481526020016005820180546108d7906149dd565b80601f0160208091040260200160405190810160405280929190818152602001828054610903906149dd565b80156109505780601f1061092557610100808354040283529160200191610950565b820191906000526020600020905b81548152906001019060200180831161093357829003601f168201915b5050505050815260200160068201548152602001600782018054610973906149dd565b80601f016020809104026020016040519081016040528092919081815260200182805461099f906149dd565b80156109ec5780601f106109c1576101008083540402835291602001916109ec565b820191906000526020600020905b8154815290600101906020018083116109cf57829003601f168201915b50505050508152602001600882015481526020016009820160009054906101000a900460ff166005811115610a2457610a23614036565b5b6005811115610a3657610a35614036565b5b81526020016009820160019054906101000a900460ff161515151581526020016009820160029054906101000a900473ffffffffffffffffffffffffffffffffffffffff1673ffffffffffffffffffffffffffffffffffffffff1673ffffffffffffffffffffffffffffffffffffffff168152602001600a82018054610abb906149dd565b80601f0160208091040260200160405190810160405280929190818152602001828054610ae7906149dd565b8015610b345780601f10610b0957610100808354040283529160200191610b34565b820191906000526020600020905b815481529060010190602001808311610b1757829003601f168201915b5050505050815250509050610b7f565b6040517f08c379a0000000000000000000000000000000000000000000000000000000008152600401610b7690614abe565b60405180910390fd5b92915050565b60606000805b600880549050811015610c4d57836005811115610bab57610baa614036565b5b60088281548110610bbf57610bbe61497f565b5b90600052602060002090600b020160090160009054906101000a900460ff166005811115610bf057610bef614036565b5b148015610c2c575060088181548110610c0c57610c0b61497f565b5b90600052602060002090600b020160090160019054906101000a900460ff165b15610c40578180610c3c90614b0d565b9250505b8080600101915050610b8b565b5060008167ffffffffffffffff811115610c6a57610c69613e21565b5b604051908082528060200260200182016040528015610ca357816020015b610c90613c94565b815260200190600190039081610c885790505b5090506000805b60088054905081101561117057856005811115610cca57610cc9614036565b5b60088281548110610cde57610cdd61497f565b5b90600052602060002090600b020160090160009054906101000a900460ff166005811115610d0f57610d0e614036565b5b148015610d4b575060088181548110610d2b57610d2a61497f565b5b90600052602060002090600b020160090160019054906101000a900460ff165b156111635760088181548110610d6457610d6361497f565b5b90600052602060002090600b0201604051806101a001604052908160008201548152602001600182018054610d98906149dd565b80601f0160208091040260200160405190810160405280929190818152602001828054610dc4906149dd565b8015610e115780601f10610de657610100808354040283529160200191610e11565b820191906000526020600020905b815481529060010190602001808311610df457829003601f168201915b50505050508152602001600282018054610e2a906149dd565b80601f0160208091040260200160405190810160405280929190818152602001828054610e56906149dd565b8015610ea35780601f10610e7857610100808354040283529160200191610ea3565b820191906000526020600020905b815481529060010190602001808311610e8657829003601f168201915b505050505081526020016003820154815260200160048201548152602001600582018054610ed0906149dd565b80601f0160208091040260200160405190810160405280929190818152602001828054610efc906149dd565b8015610f495780601f10610f1e57610100808354040283529160200191610f49565b820191906000526020600020905b815481529060010190602001808311610f2c57829003601f168201915b5050505050815260200160068201548152602001600782018054610f6c906149dd565b80601f0160208091040260200160405190810160405280929190818152602001828054610f98906149dd565b8015610fe55780601f10610fba57610100808354040283529160200191610fe5565b820191906000526020600020905b815481529060010190602001808311610fc857829003601f168201915b50505050508152602001600882015481526020016009820160009054906101000a900460ff16600581111561101d5761101c614036565b5b600581111561102f5761102e614036565b5b81526020016009820160019054906101000a900460ff161515151581526020016009820160029054906101000a900473ffffffffffffffffffffffffffffffffffffffff1673ffffffffffffffffffffffffffffffffffffffff1673ffffffffffffffffffffffffffffffffffffffff168152602001600a820180546110b4906149dd565b80601f01602080910402602001604051908101604052809291908181526020018280546110e0906149dd565b801561112d5780601f106111025761010080835404028352916020019161112d565b820191906000526020600020905b81548152906001019060200180831161111057829003601f168201915b5050505050815250508383815181106111495761114861497f565b5b6020026020010181905250818061115f90614b0d565b9250505b8080600101915050610caa565b50819350505050919050565b60008060009054906101000a900473ffffffffffffffffffffffffffffffffffffffff1673ffffffffffffffffffffffffffffffffffffffff163373ffffffffffffffffffffffffffffffffffffffff161461120d576040517f08c379a000000000000000000000000000000000000000000000000000000000815260040161120490614bc7565b60405180910390fd5b600073ffffffffffffffffffffffffffffffffffffffff168273ffffffffffffffffffffffffffffffffffffffff160361127c576040517f08c379a000000000000000000000000000000000000000000000000000000000815260040161127390614c33565b60405180910390fd5b600760008373ffffffffffffffffffffffffffffffffffffffff1673ffffffffffffffffffffffffffffffffffffffff168152602001908152602001600020549050919050565b600560003373ffffffffffffffffffffffffffffffffffffffff1673ffffffffffffffffffffffffffffffffffffffff16815260200190815260200160002060010160149054906101000a900460ff16611352576040517f08c379a000000000000000000000000000000000000000000000000000000000815260040161134990614cc5565b60405180910390fd5b600060016008805490506113669190614ce5565b90506000604051806101a001604052808381526020018d81526020018c81526020018b81526020018a81526020018981526020018881526020018781526020018681526020018560058111156113bf576113be614036565b5b81526020016001151581526020013373ffffffffffffffffffffffffffffffffffffffff16815260200184815250905060088190806001815401808255809150506001900390600052602060002090600b020160009091909190915060008201518160000155602082015181600101908161143a9190614ec5565b5060408201518160020190816114509190614ec5565b50606082015181600301556080820151816004015560a082015181600501908161147a9190614ec5565b5060c0820151816006015560e082015181600701908161149a9190614ec5565b5061010082015181600801556101208201518160090160006101000a81548160ff021916908360058111156114d2576114d1614036565b5b02179055506101408201518160090160016101000a81548160ff0219169083151502179055506101608201518160090160026101000a81548173ffffffffffffffffffffffffffffffffffffffff021916908373ffffffffffffffffffffffffffffffffffffffff16021790555061018082015181600a0190816115569190614ec5565b50505080600b600084815260200190815260200160002060008201518160000155602082015181600101908161158c9190614ec5565b5060408201518160020190816115a29190614ec5565b50606082015181600301556080820151816004015560a08201518160050190816115cc9190614ec5565b5060c0820151816006015560e08201518160070190816115ec9190614ec5565b5061010082015181600801556101208201518160090160006101000a81548160ff0219169083600581111561162457611623614036565b5b02179055506101408201518160090160016101000a81548160ff0219169083151502179055506101608201518160090160026101000a81548173ffffffffffffffffffffffffffffffffffffffff021916908373ffffffffffffffffffffffffffffffffffffffff16021790555061018082015181600a0190816116a89190614ec5565b5090505080600c8d6040516116bd9190614a4a565b90815260200160405180910390206000820151816000015560208201518160010190816116ea9190614ec5565b5060408201518160020190816117009190614ec5565b50606082015181600301556080820151816004015560a082015181600501908161172a9190614ec5565b5060c0820151816006015560e082015181600701908161174a9190614ec5565b5061010082015181600801556101208201518160090160006101000a81548160ff0219169083600581111561178257611781614036565b5b02179055506101408201518160090160016101000a81548160ff0219169083151502179055506101608201518160090160026101000a81548173ffffffffffffffffffffffffffffffffffffffff021916908373ffffffffffffffffffffffffffffffffffffffff16021790555061018082015181600a0190816118069190614ec5565b509050503373ffffffffffffffffffffffffffffffffffffffff168c60405161182f9190614a4a565b6040518091039020837f40fb05b814a900c99fa0a76d919dfdeaf3389540e4ca70f97ba40ca9a38f379760405160405180910390a4505050505050505050505050565b60606000805b6008805490508110156118ce5760006008828154811061189b5761189a61497f565b5b90600052602060002090600b020160080154036118c15781806118bd90614b0d565b9250505b8080600101915050611878565b5060008167ffffffffffffffff8111156118eb576118ea613e21565b5b60405190808252806020026020018201604052801561192457816020015b611911613c94565b8152602001906001900390816119095790505b5090506000805b600880549050811015611d855760006008828154811061194e5761194d61497f565b5b90600052602060002090600b02016008015403611d7857600881815481106119795761197861497f565b5b90600052602060002090600b0201604051806101a0016040529081600082015481526020016001820180546119ad906149dd565b80601f01602080910402602001604051908101604052809291908181526020018280546119d9906149dd565b8015611a265780601f106119fb57610100808354040283529160200191611a26565b820191906000526020600020905b815481529060010190602001808311611a0957829003601f168201915b50505050508152602001600282018054611a3f906149dd565b80601f0160208091040260200160405190810160405280929190818152602001828054611a6b906149dd565b8015611ab85780601f10611a8d57610100808354040283529160200191611ab8565b820191906000526020600020905b815481529060010190602001808311611a9b57829003601f168201915b505050505081526020016003820154815260200160048201548152602001600582018054611ae5906149dd565b80601f0160208091040260200160405190810160405280929190818152602001828054611b11906149dd565b8015611b5e5780601f10611b3357610100808354040283529160200191611b5e565b820191906000526020600020905b815481529060010190602001808311611b4157829003601f168201915b5050505050815260200160068201548152602001600782018054611b81906149dd565b80601f0160208091040260200160405190810160405280929190818152602001828054611bad906149dd565b8015611bfa5780601f10611bcf57610100808354040283529160200191611bfa565b820191906000526020600020905b815481529060010190602001808311611bdd57829003601f168201915b50505050508152602001600882015481526020016009820160009054906101000a900460ff166005811115611c3257611c31614036565b5b6005811115611c4457611c43614036565b5b81526020016009820160019054906101000a900460ff161515151581526020016009820160029054906101000a900473ffffffffffffffffffffffffffffffffffffffff1673ffffffffffffffffffffffffffffffffffffffff1673ffffffffffffffffffffffffffffffffffffffff168152602001600a82018054611cc9906149dd565b80601f0160208091040260200160405190810160405280929190818152602001828054611cf5906149dd565b8015611d425780601f10611d1757610100808354040283529160200191611d42565b820191906000526020600020905b815481529060010190602001808311611d2557829003601f168201915b505050505081525050838381518110611d5e57611d5d61497f565b5b60200260200101819052508180611d7490614b0d565b9250505b808060010191505061192b565b5081935050505090565b600560003373ffffffffffffffffffffffffffffffffffffffff1673ffffffffffffffffffffffffffffffffffffffff16815260200190815260200160002060010160149054906101000a900460ff1615611e1f576040517f08c379a0000000000000000000000000000000000000000000000000000000008152600401611e1690614fe3565b60405180910390fd5b60006001600480549050611e339190614ce5565b9050600060405180606001604052808381526020013373ffffffffffffffffffffffffffffffffffffffff16815260200160011515815250905060048190806001815401808255809150506001900390600052602060002090600202016000909190919091506000820151816000015560208201518160010160006101000a81548173ffffffffffffffffffffffffffffffffffffffff021916908373ffffffffffffffffffffffffffffffffffffffff16021790555060408201518160010160146101000a81548160ff021916908315150217905550505080600560003373ffffffffffffffffffffffffffffffffffffffff1673ffffffffffffffffffffffffffffffffffffffff1681526020019081526020016000206000820151816000015560208201518160010160006101000a81548173ffffffffffffffffffffffffffffffffffffffff021916908373ffffffffffffffffffffffffffffffffffffffff16021790555060408201518160010160146101000a81548160ff02191690831515021790555090505080600660008481526020019081526020016000206000820151816000015560208201518160010160006101000a81548173ffffffffffffffffffffffffffffffffffffffff021916908373ffffffffffffffffffffffffffffffffffffffff16021790555060408201518160010160146101000a81548160ff021916908315150217905550905050813373ffffffffffffffffffffffffffffffffffffffff167fe29d35093005f4d575e1003753426b57a7f64378ba73332eef9c6ccc2b8decd660405160405180910390a35050565b600081036120d3576040517f08c379a00000000000000000000000000000000000000000000000000000000081526004016120ca9061504f565b60405180910390fd5b600880549050811061211a576040517f08c379a00000000000000000000000000000000000000000000000000000000081526004016121119061504f565b60405180910390fd5b600e600082815260200190815260200160002060009054906101000a900460ff1661217a576040517f08c379a0000000000000000000000000000000000000000000000000000000008152600401612171906150bb565b60405180910390fd5b6000805b600d600084815260200190815260200160002080549050811015612234573373ffffffffffffffffffffffffffffffffffffffff16600d600085815260200190815260200160002082815481106121d8576121d761497f565b5b9060005260206000200160009054906101000a900473ffffffffffffffffffffffffffffffffffffffff1673ffffffffffffffffffffffffffffffffffffffff16036122275760019150612234565b808060010191505061217e565b5080612275576040517f08c379a000000000000000000000000000000000000000000000000000000000815260040161226c90615127565b60405180910390fd5b600160009054906101000a900473ffffffffffffffffffffffffffffffffffffffff1673ffffffffffffffffffffffffffffffffffffffff16638577238333846040518363ffffffff1660e01b81526004016122d2929190615156565b600060405180830381600087803b1580156122ec57600080fd5b505af1158015612300573d6000803e3d6000fd5b505050505050565b60008054906101000a900473ffffffffffffffffffffffffffffffffffffffff1673ffffffffffffffffffffffffffffffffffffffff163373ffffffffffffffffffffffffffffffffffffffff1614612396576040517f08c379a000000000000000000000000000000000000000000000000000000000815260040161238d90614bc7565b60405180910390fd5b60088054905081106123dd576040517f08c379a00000000000000000000000000000000000000000000000000000000081526004016123d4906151cb565b60405180910390fd5b600881815481106123f1576123f061497f565b5b90600052602060002090600b02016000808201600090556001820160006124189190613d26565b6002820160006124289190613d26565b600382016000905560048201600090556005820160006124489190613d26565b60068201600090556007820160006124609190613d26565b60088201600090556009820160006101000a81549060ff02191690556009820160016101000a81549060ff02191690556009820160026101000a81549073ffffffffffffffffffffffffffffffffffffffff0219169055600a820160006124c79190613d26565b5050807f6e7fca178a234e4fc64e21ad37436e010bf09bd34f8ae72ad858d8812ca17b3660405160405180910390a250565b60606000805b600880549050811015612556576000600882815481106125225761252161497f565b5b90600052602060002090600b020160080154111561254957818061254590614b0d565b9250505b80806001019150506124ff565b5060008167ffffffffffffffff81111561257357612572613e21565b5b6040519080825280602002602001820160405280156125ac57816020015b612599613c94565b8152602001906001900390816125915790505b5090506000805b600880549050811015612a0e576000600882815481106125d6576125d561497f565b5b90600052602060002090600b0201600801541115612a0157600881815481106126025761260161497f565b5b90600052602060002090600b0201604051806101a001604052908160008201548152602001600182018054612636906149dd565b80601f0160208091040260200160405190810160405280929190818152602001828054612662906149dd565b80156126af5780601f10612684576101008083540402835291602001916126af565b820191906000526020600020905b81548152906001019060200180831161269257829003601f168201915b505050505081526020016002820180546126c8906149dd565b80601f01602080910402602001604051908101604052809291908181526020018280546126f4906149dd565b80156127415780601f1061271657610100808354040283529160200191612741565b820191906000526020600020905b81548152906001019060200180831161272457829003601f168201915b50505050508152602001600382015481526020016004820154815260200160058201805461276e906149dd565b80601f016020809104026020016040519081016040528092919081815260200182805461279a906149dd565b80156127e75780601f106127bc576101008083540402835291602001916127e7565b820191906000526020600020905b8154815290600101906020018083116127ca57829003601f168201915b505050505081526020016006820154815260200160078201805461280a906149dd565b80601f0160208091040260200160405190810160405280929190818152602001828054612836906149dd565b80156128835780601f1061285857610100808354040283529160200191612883565b820191906000526020600020905b81548152906001019060200180831161286657829003601f168201915b50505050508152602001600882015481526020016009820160009054906101000a900460ff1660058111156128bb576128ba614036565b5b60058111156128cd576128cc614036565b5b81526020016009820160019054906101000a900460ff161515151581526020016009820160029054906101000a900473ffffffffffffffffffffffffffffffffffffffff1673ffffffffffffffffffffffffffffffffffffffff1673ffffffffffffffffffffffffffffffffffffffff168152602001600a82018054612952906149dd565b80601f016020809104026020016040519081016040528092919081815260200182805461297e906149dd565b80156129cb5780601f106129a0576101008083540402835291602001916129cb565b820191906000526020600020905b8154815290600101906020018083116129ae57829003601f168201915b5050505050815250508383815181106129e7576129e661497f565b5b602002602001018190525081806129fd90614b0d565b9250505b80806001019150506125b3565b5081935050505090565b6008805490508a10612a5f576040517f08c379a0000000000000000000000000000000000000000000000000000000008152600401612a56906151cb565b60405180910390fd5b600060088b81548110612a7557612a7461497f565b5b90600052602060002090600b020190503373ffffffffffffffffffffffffffffffffffffffff168160090160029054906101000a900473ffffffffffffffffffffffffffffffffffffffff1673ffffffffffffffffffffffffffffffffffffffff1614612b17576040517f08c379a0000000000000000000000000000000000000000000000000000000008152600401612b0e9061525d565b60405180910390fd5b89816001019081612b289190614ec5565b5088816002019081612b3a9190614ec5565b5087816003018190555086816004018190555085816005019081612b5e9190614ec5565b5084816006018190555083816007019081612b799190614ec5565b508281600801819055508181600a019081612b949190614ec5565b5080600c8b604051612ba69190614a4a565b90815260200160405180910390206000820154816000015560018201816001019081612bd29190615293565b5060028201816002019081612be79190615293565b50600382015481600301556004820154816004015560058201816005019081612c109190615293565b506006820154816006015560078201816007019081612c2f9190615293565b50600882015481600801556009820160009054906101000a900460ff168160090160006101000a81548160ff02191690836005811115612c7257612c71614036565b5b02179055506009820160019054906101000a900460ff168160090160016101000a81548160ff0219169083151502179055506009820160029054906101000a900473ffffffffffffffffffffffffffffffffffffffff168160090160026101000a81548173ffffffffffffffffffffffffffffffffffffffff021916908373ffffffffffffffffffffffffffffffffffffffff160217905550600a820181600a019081612d1f9190615293565b509050505050505050505050505050565b60008054906101000a900473ffffffffffffffffffffffffffffffffffffffff1673ffffffffffffffffffffffffffffffffffffffff163373ffffffffffffffffffffffffffffffffffffffff1614612dbe576040517f08c379a0000000000000000000000000000000000000000000000000000000008152600401612db590614bc7565b60405180910390fd5b6008805490508110612e05576040517f08c379a0000000000000000000000000000000000000000000000000000000008152600401612dfc906151cb565b60405180910390fd5b600060088281548110612e1b57612e1a61497f565b5b90600052602060002090600b020190508060090160019054906101000a900460ff16612e7c576040517f08c379a0000000000000000000000000000000000000000000000000000000008152600401612e73906153c7565b60405180910390fd5b60098190806001815401808255809150506001900390600052602060002090600b02016000909190919091506000820154816000015560018201816001019081612ec69190615293565b5060028201816002019081612edb9190615293565b50600382015481600301556004820154816004015560058201816005019081612f049190615293565b506006820154816006015560078201816007019081612f239190615293565b50600882015481600801556009820160009054906101000a900460ff168160090160006101000a81548160ff02191690836005811115612f6657612f65614036565b5b02179055506009820160019054906101000a900460ff168160090160016101000a81548160ff0219169083151502179055506009820160029054906101000a900473ffffffffffffffffffffffffffffffffffffffff168160090160026101000a81548173ffffffffffffffffffffffffffffffffffffffff021916908373ffffffffffffffffffffffffffffffffffffffff160217905550600a820181600a0190816130139190615293565b5050506001600a600084815260200190815260200160002060006101000a81548160ff02191690831515021790555060008160090160016101000a81548160ff021916908315150217905550817f3276e58d31dfc419b1d28c4f32f3661722910d12aafa7e233c919a7d0a7b5f5360405160405180910390a25050565b6060600082036130d5576040517f08c379a00000000000000000000000000000000000000000000000000000000081526004016130cc9061504f565b60405180910390fd5b600880549050821061311c576040517f08c379a00000000000000000000000000000000000000000000000000000000081526004016131139061504f565b60405180910390fd5b600d60008381526020019081526020016000208054806020026020016040519081016040528092919081815260200182805480156131af57602002820191906000526020600020905b8160009054906101000a900473ffffffffffffffffffffffffffffffffffffffff1673ffffffffffffffffffffffffffffffffffffffff1681526020019060010190808311613165575b50505050509050919050565b6131c3613d66565b60066000838152602001908152602001600020604051806060016040529081600082015481526020016001820160009054906101000a900473ffffffffffffffffffffffffffffffffffffffff1673ffffffffffffffffffffffffffffffffffffffff1673ffffffffffffffffffffffffffffffffffffffff1681526020016001820160149054906101000a900460ff1615151515815250509050919050565b6000600760003373ffffffffffffffffffffffffffffffffffffffff1673ffffffffffffffffffffffffffffffffffffffff16815260200190815260200160002054905090565b60606008805480602002602001604051908101604052809291908181526020016000905b828210156136b957838290600052602060002090600b0201604051806101a00160405290816000820154815260200160018201805461330c906149dd565b80601f0160208091040260200160405190810160405280929190818152602001828054613338906149dd565b80156133855780601f1061335a57610100808354040283529160200191613385565b820191906000526020600020905b81548152906001019060200180831161336857829003601f168201915b5050505050815260200160028201805461339e906149dd565b80601f01602080910402602001604051908101604052809291908181526020018280546133ca906149dd565b80156134175780601f106133ec57610100808354040283529160200191613417565b820191906000526020600020905b8154815290600101906020018083116133fa57829003601f168201915b505050505081526020016003820154815260200160048201548152602001600582018054613444906149dd565b80601f0160208091040260200160405190810160405280929190818152602001828054613470906149dd565b80156134bd5780601f10613492576101008083540402835291602001916134bd565b820191906000526020600020905b8154815290600101906020018083116134a057829003601f168201915b50505050508152602001600682015481526020016007820180546134e0906149dd565b80601f016020809104026020016040519081016040528092919081815260200182805461350c906149dd565b80156135595780601f1061352e57610100808354040283529160200191613559565b820191906000526020600020905b81548152906001019060200180831161353c57829003601f168201915b50505050508152602001600882015481526020016009820160009054906101000a900460ff16600581111561359157613590614036565b5b60058111156135a3576135a2614036565b5b81526020016009820160019054906101000a900460ff161515151581526020016009820160029054906101000a900473ffffffffffffffffffffffffffffffffffffffff1673ffffffffffffffffffffffffffffffffffffffff1673ffffffffffffffffffffffffffffffffffffffff168152602001600a82018054613628906149dd565b80601f0160208091040260200160405190810160405280929190818152602001828054613654906149dd565b80156136a15780601f10613676576101008083540402835291602001916136a1565b820191906000526020600020905b81548152906001019060200180831161368457829003601f168201915b505050505081525050815260200190600101906132ce565b50505050905090565b60008103613705576040517f08c379a00000000000000000000000000000000000000000000000000000000081526004016136fc9061504f565b60405180910390fd5b600880549050811061374c576040517f08c379a00000000000000000000000000000000000000000000000000000000081526004016137439061504f565b60405180910390fd5b6000600882815481106137625761376161497f565b5b90600052602060002090600b020190508060090160019054906101000a900460ff166137c3576040517f08c379a00000000000000000000000000000000000000000000000000000000081526004016137ba90615433565b60405180910390fd5b6000600d6000848152602001908152602001600020905060005b81805490508110156138a1573373ffffffffffffffffffffffffffffffffffffffff168282815481106138135761381261497f565b5b9060005260206000200160009054906101000a900473ffffffffffffffffffffffffffffffffffffffff1673ffffffffffffffffffffffffffffffffffffffff1603613894576040517f08c379a000000000000000000000000000000000000000000000000000000000815260040161388b906154c5565b60405180910390fd5b80806001019150506137dd565b50600082600801541115613bd7576000670de0b6b3a764000083600801546138c991906154e5565b905080600260009054906101000a900473ffffffffffffffffffffffffffffffffffffffff1673ffffffffffffffffffffffffffffffffffffffff166370a08231336040518263ffffffff1660e01b81526004016139279190615527565b602060405180830381865afa158015613944573d6000803e3d6000fd5b505050506040513d601f19601f820116820180604052508101906139689190615557565b10156139a9576040517f08c379a00000000000000000000000000000000000000000000000000000000081526004016139a0906155d0565b60405180910390fd5b600260009054906101000a900473ffffffffffffffffffffffffffffffffffffffff1673ffffffffffffffffffffffffffffffffffffffff166323b872dd3330846040518463ffffffff1660e01b8152600401613a08939291906155f0565b6020604051808303816000875af1158015613a27573d6000803e3d6000fd5b505050506040513d601f19601f82011682018060405250810190613a4b9190615653565b613a8a576040517f08c379a0000000000000000000000000000000000000000000000000000000008152600401613a81906156cc565b60405180910390fd5b60006064606383613a9b91906154e5565b613aa5919061571b565b905060008183613ab5919061574c565b9050600260009054906101000a900473ffffffffffffffffffffffffffffffffffffffff1673ffffffffffffffffffffffffffffffffffffffff1663a9059cbb8660090160029054906101000a900473ffffffffffffffffffffffffffffffffffffffff16846040518363ffffffff1660e01b8152600401613b38929190615156565b6020604051808303816000875af1158015613b57573d6000803e3d6000fd5b505050506040513d601f19601f82011682018060405250810190613b7b9190615653565b613bba576040517f08c379a0000000000000000000000000000000000000000000000000000000008152600401613bb1906157cc565b60405180910390fd5b8060036000828254613bcc9190614ce5565b925050819055505050505b600d6000848152602001908152602001600020339080600181540180825580915050600190039060005260206000200160009091909190916101000a81548173ffffffffffffffffffffffffffffffffffffffff021916908373ffffffffffffffffffffffffffffffffffffffff1602179055503373ffffffffffffffffffffffffffffffffffffffff16837facacbb3ccb9cd7f13b803b9d807125b5220ac8bd9ee5b0d5b24ddd6e9183d0fd60405160405180910390a3505050565b604051806101a0016040528060008152602001606081526020016060815260200160008152602001600081526020016060815260200160008152602001606081526020016000815260200160006005811115613cf357613cf2614036565b5b8152602001600015158152602001600073ffffffffffffffffffffffffffffffffffffffff168152602001606081525090565b508054613d32906149dd565b6000825580601f10613d445750613d63565b601f016020900490600052602060002090810190613d629190613d9f565b5b50565b604051806060016040528060008152602001600073ffffffffffffffffffffffffffffffffffffffff1681526020016000151581525090565b5b80821115613db8576000816000905550600101613da0565b5090565b6000604051905090565b600080fd5b600080fd5b6000819050919050565b613de381613dd0565b8114613dee57600080fd5b50565b600081359050613e0081613dda565b92915050565b600080fd5b600080fd5b6000601f19601f8301169050919050565b7f4e487b7100000000000000000000000000000000000000000000000000000000600052604160045260246000fd5b613e5982613e10565b810181811067ffffffffffffffff82111715613e7857613e77613e21565b5b80604052505050565b6000613e8b613dbc565b9050613e978282613e50565b919050565b600067ffffffffffffffff821115613eb757613eb6613e21565b5b613ec082613e10565b9050602081019050919050565b82818337600083830152505050565b6000613eef613eea84613e9c565b613e81565b905082815260208101848484011115613f0b57613f0a613e0b565b5b613f16848285613ecd565b509392505050565b600082601f830112613f3357613f32613e06565b5b8135613f43848260208601613edc565b91505092915050565b60008060408385031215613f6357613f62613dc6565b5b6000613f7185828601613df1565b925050602083013567ffffffffffffffff811115613f9257613f91613dcb565b5b613f9e85828601613f1e565b9150509250929050565b613fb181613dd0565b82525050565b600081519050919050565b600082825260208201905092915050565b60005b83811015613ff1578082015181840152602081019050613fd6565b60008484015250505050565b600061400882613fb7565b6140128185613fc2565b9350614022818560208601613fd3565b61402b81613e10565b840191505092915050565b7f4e487b7100000000000000000000000000000000000000000000000000000000600052602160045260246000fd5b6006811061407657614075614036565b5b50565b600081905061408782614065565b919050565b600061409782614079565b9050919050565b6140a78161408c565b82525050565b60008115159050919050565b6140c2816140ad565b82525050565b600073ffffffffffffffffffffffffffffffffffffffff82169050919050565b60006140f3826140c8565b9050919050565b614103816140e8565b82525050565b60006101a0830160008301516141226000860182613fa8565b506020830151848203602086015261413a8282613ffd565b915050604083015184820360408601526141548282613ffd565b91505060608301516141696060860182613fa8565b50608083015161417c6080860182613fa8565b5060a083015184820360a08601526141948282613ffd565b91505060c08301516141a960c0860182613fa8565b5060e083015184820360e08601526141c18282613ffd565b9150506101008301516141d8610100860182613fa8565b506101208301516141ed61012086018261409e565b506101408301516142026101408601826140b9565b506101608301516142176101608601826140fa565b506101808301518482036101808601526142318282613ffd565b9150508091505092915050565b600060208201905081810360008301526142588184614109565b905092915050565b6006811061426d57600080fd5b50565b60008135905061427f81614260565b92915050565b60006020828403121561429b5761429a613dc6565b5b60006142a984828501614270565b91505092915050565b600081519050919050565b600082825260208201905092915050565b6000819050602082019050919050565b60006101a0830160008301516142f76000860182613fa8565b506020830151848203602086015261430f8282613ffd565b915050604083015184820360408601526143298282613ffd565b915050606083015161433e6060860182613fa8565b5060808301516143516080860182613fa8565b5060a083015184820360a08601526143698282613ffd565b91505060c083015161437e60c0860182613fa8565b5060e083015184820360e08601526143968282613ffd565b9150506101008301516143ad610100860182613fa8565b506101208301516143c261012086018261409e565b506101408301516143d76101408601826140b9565b506101608301516143ec6101608601826140fa565b506101808301518482036101808601526144068282613ffd565b9150508091505092915050565b600061441f83836142de565b905092915050565b6000602082019050919050565b600061443f826142b2565b61444981856142bd565b93508360208202850161445b856142ce565b8060005b8581101561449757848403895281516144788582614413565b945061448383614427565b925060208a0199505060018101905061445f565b50829750879550505050505092915050565b600060208201905081810360008301526144c38184614434565b905092915050565b6144d4816140e8565b81146144df57600080fd5b50565b6000813590506144f1816144cb565b92915050565b60006020828403121561450d5761450c613dc6565b5b600061451b848285016144e2565b91505092915050565b61452d81613dd0565b82525050565b60006020820190506145486000830184614524565b92915050565b6000806000806000806000806000806101408b8d03121561457257614571613dc6565b5b60008b013567ffffffffffffffff8111156145905761458f613dcb565b5b61459c8d828e01613f1e565b9a505060208b013567ffffffffffffffff8111156145bd576145bc613dcb565b5b6145c98d828e01613f1e565b99505060406145da8d828e01613df1565b98505060606145eb8d828e01613df1565b97505060808b013567ffffffffffffffff81111561460c5761460b613dcb565b5b6146188d828e01613f1e565b96505060a06146298d828e01613df1565b95505060c08b013567ffffffffffffffff81111561464a57614649613dcb565b5b6146568d828e01613f1e565b94505060e06146678d828e01613df1565b9350506101006146798d828e01614270565b9250506101208b013567ffffffffffffffff81111561469b5761469a613dcb565b5b6146a78d828e01613f1e565b9150509295989b9194979a5092959850565b6000602082840312156146cf576146ce613dc6565b5b60006146dd84828501613df1565b91505092915050565b6000806000806000806000806000806101408b8d03121561470a57614709613dc6565b5b60006147188d828e01613df1565b9a505060208b013567ffffffffffffffff81111561473957614738613dcb565b5b6147458d828e01613f1e565b99505060408b013567ffffffffffffffff81111561476657614765613dcb565b5b6147728d828e01613f1e565b98505060606147838d828e01613df1565b97505060806147948d828e01613df1565b96505060a08b013567ffffffffffffffff8111156147b5576147b4613dcb565b5b6147c18d828e01613f1e565b95505060c06147d28d828e01613df1565b94505060e08b013567ffffffffffffffff8111156147f3576147f2613dcb565b5b6147ff8d828e01613f1e565b9350506101006148118d828e01613df1565b9250506101208b013567ffffffffffffffff81111561483357614832613dcb565b5b61483f8d828e01613f1e565b9150509295989b9194979a5092959850565b600081519050919050565b600082825260208201905092915050565b6000819050602082019050919050565b600061488983836140fa565b60208301905092915050565b6000602082019050919050565b60006148ad82614851565b6148b7818561485c565b93506148c28361486d565b8060005b838110156148f35781516148da888261487d565b97506148e583614895565b9250506001810190506148c6565b5085935050505092915050565b6000602082019050818103600083015261491a81846148a2565b905092915050565b6060820160008201516149386000850182613fa8565b50602082015161494b60208501826140fa565b50604082015161495e60408501826140b9565b50505050565b60006060820190506149796000830184614922565b92915050565b7f4e487b7100000000000000000000000000000000000000000000000000000000600052603260045260246000fd5b7f4e487b7100000000000000000000000000000000000000000000000000000000600052602260045260246000fd5b600060028204905060018216806149f557607f821691505b602082108103614a0857614a076149ae565b5b50919050565b600081905092915050565b6000614a2482613fb7565b614a2e8185614a0e565b9350614a3e818560208601613fd3565b80840191505092915050565b6000614a568284614a19565b915081905092915050565b600082825260208201905092915050565b7f4576656e74206e6f7420666f756e640000000000000000000000000000000000600082015250565b6000614aa8600f83614a61565b9150614ab382614a72565b602082019050919050565b60006020820190508181036000830152614ad781614a9b565b9050919050565b7f4e487b7100000000000000000000000000000000000000000000000000000000600052601160045260246000fd5b6000614b1882613dd0565b91507fffffffffffffffffffffffffffffffffffffffffffffffffffffffffffffffff8203614b4a57614b49614ade565b5b600182019050919050565b7f4f6e6c79206f776e65722063616e2063616c6c20746869732066756e6374696f60008201527f6e00000000000000000000000000000000000000000000000000000000000000602082015250565b6000614bb1602183614a61565b9150614bbc82614b55565b604082019050919050565b60006020820190508181036000830152614be081614ba4565b9050919050565b7f496e76616c696420616464726573730000000000000000000000000000000000600082015250565b6000614c1d600f83614a61565b9150614c2882614be7565b602082019050919050565b60006020820190508181036000830152614c4c81614c10565b9050919050565b7f596f75206e65656420746f207265676973746572206265666f7265206372656160008201527f74696e6720616e206576656e7400000000000000000000000000000000000000602082015250565b6000614caf602d83614a61565b9150614cba82614c53565b604082019050919050565b60006020820190508181036000830152614cde81614ca2565b9050919050565b6000614cf082613dd0565b9150614cfb83613dd0565b9250828201905080821115614d1357614d12614ade565b5b92915050565b60008190508160005260206000209050919050565b60006020601f8301049050919050565b600082821b905092915050565b600060088302614d7b7fffffffffffffffffffffffffffffffffffffffffffffffffffffffffffffffff82614d3e565b614d858683614d3e565b95508019841693508086168417925050509392505050565b6000819050919050565b6000614dc2614dbd614db884613dd0565b614d9d565b613dd0565b9050919050565b6000819050919050565b614ddc83614da7565b614df0614de882614dc9565b848454614d4b565b825550505050565b600090565b614e05614df8565b614e10818484614dd3565b505050565b5b81811015614e3457614e29600082614dfd565b600181019050614e16565b5050565b601f821115614e7957614e4a81614d19565b614e5384614d2e565b81016020851015614e62578190505b614e76614e6e85614d2e565b830182614e15565b50505b505050565b600082821c905092915050565b6000614e9c60001984600802614e7e565b1980831691505092915050565b6000614eb58383614e8b565b9150826002028217905092915050565b614ece82613fb7565b67ffffffffffffffff811115614ee757614ee6613e21565b5b614ef182546149dd565b614efc828285614e38565b600060209050601f831160018114614f2f5760008415614f1d578287015190505b614f278582614ea9565b865550614f8f565b601f198416614f3d86614d19565b60005b82811015614f6557848901518255600182019150602085019450602081019050614f40565b86831015614f825784890151614f7e601f891682614e8b565b8355505b6001600288020188555050505b505050505050565b7f5573657220616c72656164792072656769737465726564000000000000000000600082015250565b6000614fcd601783614a61565b9150614fd882614f97565b602082019050919050565b60006020820190508181036000830152614ffc81614fc0565b9050919050565b7f496e76616c6964206576656e7420494400000000000000000000000000000000600082015250565b6000615039601083614a61565b915061504482615003565b602082019050919050565b600060208201905081810360008301526150688161502c565b9050919050565b7f4576656e74206973207374696c6c206f6e676f696e6700000000000000000000600082015250565b60006150a5601683614a61565b91506150b08261506f565b602082019050919050565b600060208201905081810360008301526150d481615098565b9050919050565b7f596f7520646964206e6f7420617474656e642074686973206576656e74000000600082015250565b6000615111601d83614a61565b915061511c826150db565b602082019050919050565b6000602082019050818103600083015261514081615104565b9050919050565b615150816140e8565b82525050565b600060408201905061516b6000830185615147565b6151786020830184614524565b9392505050565b7f496e76616c69642070726f6772616d2049440000000000000000000000000000600082015250565b60006151b5601283614a61565b91506151c08261517f565b602082019050919050565b600060208201905081810360008301526151e4816151a8565b9050919050565b7f596f7520617265206e6f74207468652063726561746f72206f6620746869732060008201527f6576656e74000000000000000000000000000000000000000000000000000000602082015250565b6000615247602583614a61565b9150615252826151eb565b604082019050919050565b600060208201905081810360008301526152768161523a565b9050919050565b60008154905061528c816149dd565b9050919050565b8181036152a1575050615379565b6152aa8261527d565b67ffffffffffffffff8111156152c3576152c2613e21565b5b6152cd82546149dd565b6152d8828285614e38565b6000601f83116001811461530757600084156152f5578287015490505b6152ff8582614ea9565b865550615372565b601f19841661531587614d19565b965061532086614d19565b60005b8281101561534857848901548255600182019150600185019450602081019050615323565b868310156153655784890154615361601f891682614e8b565b8355505b6001600288020188555050505b5050505050505b565b7f50726f6772616d206973206e6f74206163746976650000000000000000000000600082015250565b60006153b1601583614a61565b91506153bc8261537b565b602082019050919050565b600060208201905081810360008301526153e0816153a4565b9050919050565b7f4576656e74206973206e6f742061637469766500000000000000000000000000600082015250565b600061541d601383614a61565b9150615428826153e7565b602082019050919050565b6000602082019050818103600083015261544c81615410565b9050919050565b7f557365722068617320616c7265616479207369676e656420757020666f72207460008201527f686973206576656e740000000000000000000000000000000000000000000000602082015250565b60006154af602983614a61565b91506154ba82615453565b604082019050919050565b600060208201905081810360008301526154de816154a2565b9050919050565b60006154f082613dd0565b91506154fb83613dd0565b925082820261550981613dd0565b915082820484148315176155205761551f614ade565b5b5092915050565b600060208201905061553c6000830184615147565b92915050565b60008151905061555181613dda565b92915050565b60006020828403121561556d5761556c613dc6565b5b600061557b84828501615542565b91505092915050565b7f496e73756666696369656e7420746f6b656e2062616c616e6365000000000000600082015250565b60006155ba601a83614a61565b91506155c582615584565b602082019050919050565b600060208201905081810360008301526155e9816155ad565b9050919050565b60006060820190506156056000830186615147565b6156126020830185615147565b61561f6040830184614524565b949350505050565b615630816140ad565b811461563b57600080fd5b50565b60008151905061564d81615627565b92915050565b60006020828403121561566957615668613dc6565b5b60006156778482850161563e565b91505092915050565b7f546f6b656e207472616e73666572206661696c65640000000000000000000000600082015250565b60006156b6601583614a61565b91506156c182615680565b602082019050919050565b600060208201905081810360008301526156e5816156a9565b9050919050565b7f4e487b7100000000000000000000000000000000000000000000000000000000600052601260045260246000fd5b600061572682613dd0565b915061573183613dd0565b925082615741576157406156ec565b5b828204905092915050565b600061575782613dd0565b915061576283613dd0565b925082820390508181111561577a57615779614ade565b5b92915050565b7f5472616e7366657220746f2063726561746f72206661696c6564000000000000600082015250565b60006157b6601a83614a61565b91506157c182615780565b602082019050919050565b600060208201905081810360008301526157e5816157a9565b905091905056fea2646970667358221220a69eb1e9651a5c60e6b37c77294d4306876933440454b58b57b339d0a8e70b3b64736f6c63430008180033",
  "linkReferences": {},
  "deployedLinkReferences": {}
}