{
  "_format": "hh-sol-artifact-1",
  "contractName": "EvenStar",
  "sourceName": "contracts/EvenStar.sol",
  "abi": [
    {
      "inputs": [
        {
          "internalType": "address",
          "name": "_evenStarPOA",
          "type": "address"
        },
        {
          "internalType": "address",
          "name": "_paymentToken",
          "type": "address"
        }
      ],
      "stateMutability": "nonpayable",
      "type": "constructor"
    },
    {
      "anonymous": false,
      "inputs": [
        {
          "indexed": true,
          "internalType": "uint256",
          "name": "eventId",
          "type": "uint256"
        }
      ],
      "name": "EventArchived",
      "type": "event"
    },
    {
      "anonymous": false,
      "inputs": [
        {
          "indexed": true,
          "internalType": "uint256",
          "name": "eventId",
          "type": "uint256"
        },
        {
          "indexed": true,
          "internalType": "string",
          "name": "title",
          "type": "string"
        },
        {
          "indexed": true,
          "internalType": "address",
          "name": "creator",
          "type": "address"
        }
      ],
      "name": "EventCreated",
      "type": "event"
    },
    {
      "anonymous": false,
      "inputs": [
        {
          "indexed": true,
          "internalType": "uint256",
          "name": "eventId",
          "type": "uint256"
        }
      ],
      "name": "EventRemoved",
      "type": "event"
    },
    {
      "anonymous": false,
      "inputs": [
        {
          "indexed": true,
          "internalType": "uint256",
          "name": "eventId",
          "type": "uint256"
        },
        {
          "indexed": true,
          "internalType": "address",
          "name": "userAddress",
          "type": "address"
        }
      ],
      "name": "EventSignup",
      "type": "event"
    },
    {
      "anonymous": false,
      "inputs": [
        {
          "indexed": true,
          "internalType": "address",
          "name": "userAddress",
          "type": "address"
        },
        {
          "indexed": true,
          "internalType": "uint256",
          "name": "userId",
          "type": "uint256"
        }
      ],
      "name": "UserRegistered",
      "type": "event"
    },
    {
      "inputs": [
        {
          "internalType": "uint256",
          "name": "id",
          "type": "uint256"
        }
      ],
      "name": "archiveEvent",
      "outputs": [],
      "stateMutability": "nonpayable",
      "type": "function"
    },
    {
      "inputs": [],
      "name": "checkContractBalance",
      "outputs": [
        {
          "internalType": "uint256",
          "name": "",
          "type": "uint256"
        }
      ],
      "stateMutability": "view",
      "type": "function"
    },
    {
      "inputs": [
        {
          "internalType": "string",
          "name": "_title",
          "type": "string"
        },
        {
          "internalType": "string",
          "name": "_desc",
          "type": "string"
        },
        {
          "internalType": "uint256",
          "name": "_date",
          "type": "uint256"
        },
        {
          "internalType": "uint256",
          "name": "_time",
          "type": "uint256"
        },
        {
          "internalType": "string",
          "name": "_location",
          "type": "string"
        },
        {
          "internalType": "string",
          "name": "_duration",
          "type": "string"
        },
        {
          "internalType": "string",
          "name": "_url",
          "type": "string"
        },
        {
          "internalType": "uint256",
          "name": "_ticket",
          "type": "uint256"
        }
      ],
      "name": "createEvent",
      "outputs": [],
      "stateMutability": "nonpayable",
      "type": "function"
    },
    {
      "inputs": [
        {
          "internalType": "uint256",
          "name": "id",
          "type": "uint256"
        }
      ],
      "name": "eventSignup",
      "outputs": [],
      "stateMutability": "nonpayable",
      "type": "function"
    },
    {
      "inputs": [
        {
          "internalType": "uint256",
          "name": "id",
          "type": "uint256"
        }
      ],
      "name": "getUser",
      "outputs": [
        {
          "components": [
            {
              "internalType": "uint256",
              "name": "id",
              "type": "uint256"
            },
            {
              "internalType": "address",
              "name": "userAddress",
              "type": "address"
            },
            {
              "internalType": "bool",
              "name": "isRegistered",
              "type": "bool"
            }
          ],
          "internalType": "struct EvenStar.User",
          "name": "",
          "type": "tuple"
        }
      ],
      "stateMutability": "view",
      "type": "function"
    },
    {
      "inputs": [
        {
          "internalType": "address",
          "name": "_address",
          "type": "address"
        }
      ],
      "name": "getUserBalance",
      "outputs": [
        {
          "internalType": "uint256",
          "name": "",
          "type": "uint256"
        }
      ],
      "stateMutability": "view",
      "type": "function"
    },
    {
      "inputs": [],
      "name": "getUserBalance",
      "outputs": [
        {
          "internalType": "uint256",
          "name": "",
          "type": "uint256"
        }
      ],
      "stateMutability": "view",
      "type": "function"
    },
    {
      "inputs": [
        {
          "internalType": "uint256",
          "name": "id",
          "type": "uint256"
        }
      ],
      "name": "proofOfAttendance",
      "outputs": [],
      "stateMutability": "nonpayable",
      "type": "function"
    },
    {
      "inputs": [],
      "name": "registerUser",
      "outputs": [],
      "stateMutability": "nonpayable",
      "type": "function"
    },
    {
      "inputs": [
        {
          "internalType": "uint256",
          "name": "id",
          "type": "uint256"
        }
      ],
      "name": "removeEvent",
      "outputs": [],
      "stateMutability": "nonpayable",
      "type": "function"
    },
    {
      "inputs": [
        {
          "internalType": "uint256",
          "name": "id",
          "type": "uint256"
        },
        {
          "internalType": "string",
          "name": "_title",
          "type": "string"
        }
      ],
      "name": "searchEvent",
      "outputs": [
        {
          "components": [
            {
              "internalType": "uint256",
              "name": "id",
              "type": "uint256"
            },
            {
              "internalType": "string",
              "name": "title",
              "type": "string"
            },
            {
              "internalType": "string",
              "name": "desc",
              "type": "string"
            },
            {
              "internalType": "uint256",
              "name": "date",
              "type": "uint256"
            },
            {
              "internalType": "uint256",
              "name": "time",
              "type": "uint256"
            },
            {
              "internalType": "string",
              "name": "location",
              "type": "string"
            },
            {
              "internalType": "string",
              "name": "duration",
              "type": "string"
            },
            {
              "internalType": "string",
              "name": "url",
              "type": "string"
            },
            {
              "internalType": "uint256",
              "name": "ticket",
              "type": "uint256"
            },
            {
              "internalType": "bool",
              "name": "isActive",
              "type": "bool"
            },
            {
              "internalType": "address",
              "name": "creator",
              "type": "address"
            }
          ],
          "internalType": "struct EvenStar.Program",
          "name": "",
          "type": "tuple"
        }
      ],
      "stateMutability": "view",
      "type": "function"
    },
    {
      "inputs": [],
      "name": "searchFreeEvents",
      "outputs": [
        {
          "components": [
            {
              "internalType": "uint256",
              "name": "id",
              "type": "uint256"
            },
            {
              "internalType": "string",
              "name": "title",
              "type": "string"
            },
            {
              "internalType": "string",
              "name": "desc",
              "type": "string"
            },
            {
              "internalType": "uint256",
              "name": "date",
              "type": "uint256"
            },
            {
              "internalType": "uint256",
              "name": "time",
              "type": "uint256"
            },
            {
              "internalType": "string",
              "name": "location",
              "type": "string"
            },
            {
              "internalType": "string",
              "name": "duration",
              "type": "string"
            },
            {
              "internalType": "string",
              "name": "url",
              "type": "string"
            },
            {
              "internalType": "uint256",
              "name": "ticket",
              "type": "uint256"
            },
            {
              "internalType": "bool",
              "name": "isActive",
              "type": "bool"
            },
            {
              "internalType": "address",
              "name": "creator",
              "type": "address"
            }
          ],
          "internalType": "struct EvenStar.Program[]",
          "name": "",
          "type": "tuple[]"
        }
      ],
      "stateMutability": "view",
      "type": "function"
    },
    {
      "inputs": [],
      "name": "searchPaidEvents",
      "outputs": [
        {
          "components": [
            {
              "internalType": "uint256",
              "name": "id",
              "type": "uint256"
            },
            {
              "internalType": "string",
              "name": "title",
              "type": "string"
            },
            {
              "internalType": "string",
              "name": "desc",
              "type": "string"
            },
            {
              "internalType": "uint256",
              "name": "date",
              "type": "uint256"
            },
            {
              "internalType": "uint256",
              "name": "time",
              "type": "uint256"
            },
            {
              "internalType": "string",
              "name": "location",
              "type": "string"
            },
            {
              "internalType": "string",
              "name": "duration",
              "type": "string"
            },
            {
              "internalType": "string",
              "name": "url",
              "type": "string"
            },
            {
              "internalType": "uint256",
              "name": "ticket",
              "type": "uint256"
            },
            {
              "internalType": "bool",
              "name": "isActive",
              "type": "bool"
            },
            {
              "internalType": "address",
              "name": "creator",
              "type": "address"
            }
          ],
          "internalType": "struct EvenStar.Program[]",
          "name": "",
          "type": "tuple[]"
        }
      ],
      "stateMutability": "view",
      "type": "function"
    },
    {
      "inputs": [
        {
          "internalType": "uint256",
          "name": "id",
          "type": "uint256"
        },
        {
          "internalType": "string",
          "name": "_title",
          "type": "string"
        },
        {
          "internalType": "string",
          "name": "_desc",
          "type": "string"
        },
        {
          "internalType": "uint256",
          "name": "_date",
          "type": "uint256"
        },
        {
          "internalType": "uint256",
          "name": "_time",
          "type": "uint256"
        },
        {
          "internalType": "string",
          "name": "_location",
          "type": "string"
        },
        {
          "internalType": "string",
          "name": "_duration",
          "type": "string"
        },
        {
          "internalType": "string",
          "name": "_url",
          "type": "string"
        },
        {
          "internalType": "uint256",
          "name": "_ticket",
          "type": "uint256"
        }
      ],
      "name": "updateProgram",
      "outputs": [],
      "stateMutability": "nonpayable",
      "type": "function"
    }
  ],
  "bytecode": "0x60806040523480156200001157600080fd5b506040516200491c3803806200491c83398181016040528101906200003791906200016b565b336000806101000a81548173ffffffffffffffffffffffffffffffffffffffff021916908373ffffffffffffffffffffffffffffffffffffffff16021790555081600160006101000a81548173ffffffffffffffffffffffffffffffffffffffff021916908373ffffffffffffffffffffffffffffffffffffffff16021790555080600260006101000a81548173ffffffffffffffffffffffffffffffffffffffff021916908373ffffffffffffffffffffffffffffffffffffffff1602179055505050620001b2565b600080fd5b600073ffffffffffffffffffffffffffffffffffffffff82169050919050565b6000620001338262000106565b9050919050565b620001458162000126565b81146200015157600080fd5b50565b60008151905062000165816200013a565b92915050565b6000806040838503121562000185576200018462000101565b5b6000620001958582860162000154565b9250506020620001a88582860162000154565b9150509250929050565b61475a80620001c26000396000f3fe608060405234801561001057600080fd5b50600436106100ea5760003560e01c806352958be61161008c5780638f08c432116100665780638f08c43214610223578063b0467deb1461023f578063b7013dc11461026f578063f5dad5591461028d576100ea565b806352958be6146101cd57806356164e1e146101e957806367a9797c14610205576100ea565b80634bd7811a116100c85780634bd7811a1461016b5780634d3820eb1461018957806350312c9e1461019357806351815396146101b1576100ea565b806307727cb5146100ef5780631ddb02c11461011f578063477348921461013b575b600080fd5b6101096004803603810190610104919061309e565b6102a9565b60405161011691906132ef565b60405180910390f35b61013960048036038101906101349190613311565b610a85565b005b61015560048036038101906101509190613493565b610da2565b60405161016291906134cf565b60405180910390f35b610173610ee9565b60405161018091906136b7565b60405180910390f35b6101916113c1565b005b61019b6116c2565b6040516101a891906134cf565b60405180910390f35b6101cb60048036038101906101c691906136d9565b61175b565b005b6101e760048036038101906101e2919061381b565b611b9b565b005b61020360048036038101906101fe919061381b565b611f36565b005b61020d6120de565b60405161021a91906136b7565b60405180910390f35b61023d6004803603810190610238919061381b565b6125b8565b005b6102596004803603810190610254919061381b565b61285d565b604051610266919061388a565b60405180910390f35b610277612905565b60405161028491906134cf565b60405180910390f35b6102a760048036038101906102a2919061381b565b6129ba565b005b6102b1612e06565b600880549050831080156102e9575082600884815481106102d5576102d46138a5565b5b90600052602060002090600a020160000154145b156106965760088381548110610302576103016138a5565b5b90600052602060002090600a0201604051806101600160405290816000820154815260200160018201805461033690613903565b80601f016020809104026020016040519081016040528092919081815260200182805461036290613903565b80156103af5780601f10610384576101008083540402835291602001916103af565b820191906000526020600020905b81548152906001019060200180831161039257829003601f168201915b505050505081526020016002820180546103c890613903565b80601f01602080910402602001604051908101604052809291908181526020018280546103f490613903565b80156104415780601f1061041657610100808354040283529160200191610441565b820191906000526020600020905b81548152906001019060200180831161042457829003601f168201915b50505050508152602001600382015481526020016004820154815260200160058201805461046e90613903565b80601f016020809104026020016040519081016040528092919081815260200182805461049a90613903565b80156104e75780601f106104bc576101008083540402835291602001916104e7565b820191906000526020600020905b8154815290600101906020018083116104ca57829003601f168201915b5050505050815260200160068201805461050090613903565b80601f016020809104026020016040519081016040528092919081815260200182805461052c90613903565b80156105795780601f1061054e57610100808354040283529160200191610579565b820191906000526020600020905b81548152906001019060200180831161055c57829003601f168201915b5050505050815260200160078201805461059290613903565b80601f01602080910402602001604051908101604052809291908181526020018280546105be90613903565b801561060b5780601f106105e05761010080835404028352916020019161060b565b820191906000526020600020905b8154815290600101906020018083116105ee57829003601f168201915b50505050508152602001600882015481526020016009820160009054906101000a900460ff161515151581526020016009820160019054906101000a900473ffffffffffffffffffffffffffffffffffffffff1673ffffffffffffffffffffffffffffffffffffffff1673ffffffffffffffffffffffffffffffffffffffff16815250509050610a7f565b600082511115610a4457600c826040516106b09190613970565b908152602001604051809103902060405180610160016040529081600082015481526020016001820180546106e490613903565b80601f016020809104026020016040519081016040528092919081815260200182805461071090613903565b801561075d5780601f106107325761010080835404028352916020019161075d565b820191906000526020600020905b81548152906001019060200180831161074057829003601f168201915b5050505050815260200160028201805461077690613903565b80601f01602080910402602001604051908101604052809291908181526020018280546107a290613903565b80156107ef5780601f106107c4576101008083540402835291602001916107ef565b820191906000526020600020905b8154815290600101906020018083116107d257829003601f168201915b50505050508152602001600382015481526020016004820154815260200160058201805461081c90613903565b80601f016020809104026020016040519081016040528092919081815260200182805461084890613903565b80156108955780601f1061086a57610100808354040283529160200191610895565b820191906000526020600020905b81548152906001019060200180831161087857829003601f168201915b505050505081526020016006820180546108ae90613903565b80601f01602080910402602001604051908101604052809291908181526020018280546108da90613903565b80156109275780601f106108fc57610100808354040283529160200191610927565b820191906000526020600020905b81548152906001019060200180831161090a57829003601f168201915b5050505050815260200160078201805461094090613903565b80601f016020809104026020016040519081016040528092919081815260200182805461096c90613903565b80156109b95780601f1061098e576101008083540402835291602001916109b9565b820191906000526020600020905b81548152906001019060200180831161099c57829003601f168201915b50505050508152602001600882015481526020016009820160009054906101000a900460ff161515151581526020016009820160019054906101000a900473ffffffffffffffffffffffffffffffffffffffff1673ffffffffffffffffffffffffffffffffffffffff1673ffffffffffffffffffffffffffffffffffffffff16815250509050610a7f565b6040517f08c379a0000000000000000000000000000000000000000000000000000000008152600401610a76906139e4565b60405180910390fd5b92915050565b6008805490508910610acc576040517f08c379a0000000000000000000000000000000000000000000000000000000008152600401610ac390613a50565b60405180910390fd5b600060088a81548110610ae257610ae16138a5565b5b90600052602060002090600a020190503373ffffffffffffffffffffffffffffffffffffffff168160090160019054906101000a900473ffffffffffffffffffffffffffffffffffffffff1673ffffffffffffffffffffffffffffffffffffffff161480610b9b575060008054906101000a900473ffffffffffffffffffffffffffffffffffffffff1673ffffffffffffffffffffffffffffffffffffffff163373ffffffffffffffffffffffffffffffffffffffff16145b610bda576040517f08c379a0000000000000000000000000000000000000000000000000000000008152600401610bd190613ae2565b60405180910390fd5b88816001019081610beb9190613cae565b5087816002019081610bfd9190613cae565b5086816003018190555085816004018190555084816005019081610c219190613cae565b5083816006019081610c339190613cae565b5082816007019081610c459190613cae565b5081816008018190555080600c8a604051610c609190613970565b90815260200160405180910390206000820154816000015560018201816001019081610c8c9190613d96565b5060028201816002019081610ca19190613d96565b50600382015481600301556004820154816004015560058201816005019081610cca9190613d96565b5060068201816006019081610cdf9190613d96565b5060078201816007019081610cf49190613d96565b50600882015481600801556009820160009054906101000a900460ff168160090160006101000a81548160ff0219169083151502179055506009820160019054906101000a900473ffffffffffffffffffffffffffffffffffffffff168160090160016101000a81548173ffffffffffffffffffffffffffffffffffffffff021916908373ffffffffffffffffffffffffffffffffffffffff16021790555090505050505050505050505050565b60008060009054906101000a900473ffffffffffffffffffffffffffffffffffffffff1673ffffffffffffffffffffffffffffffffffffffff163373ffffffffffffffffffffffffffffffffffffffff1614610e33576040517f08c379a0000000000000000000000000000000000000000000000000000000008152600401610e2a90613ef0565b60405180910390fd5b600073ffffffffffffffffffffffffffffffffffffffff168273ffffffffffffffffffffffffffffffffffffffff1603610ea2576040517f08c379a0000000000000000000000000000000000000000000000000000000008152600401610e9990613f5c565b60405180910390fd5b600760008373ffffffffffffffffffffffffffffffffffffffff1673ffffffffffffffffffffffffffffffffffffffff168152602001908152602001600020549050919050565b60606000805b600880549050811015610f4557600060088281548110610f1257610f116138a5565b5b90600052602060002090600a02016008015403610f38578180610f3490613fab565b9250505b8080600101915050610eef565b5060008167ffffffffffffffff811115610f6257610f61612f73565b5b604051908082528060200260200182016040528015610f9b57816020015b610f88612e06565b815260200190600190039081610f805790505b5090506000805b6008805490508110156113b757600060088281548110610fc557610fc46138a5565b5b90600052602060002090600a020160080154036113aa5760088181548110610ff057610fef6138a5565b5b90600052602060002090600a0201604051806101600160405290816000820154815260200160018201805461102490613903565b80601f016020809104026020016040519081016040528092919081815260200182805461105090613903565b801561109d5780601f106110725761010080835404028352916020019161109d565b820191906000526020600020905b81548152906001019060200180831161108057829003601f168201915b505050505081526020016002820180546110b690613903565b80601f01602080910402602001604051908101604052809291908181526020018280546110e290613903565b801561112f5780601f106111045761010080835404028352916020019161112f565b820191906000526020600020905b81548152906001019060200180831161111257829003601f168201915b50505050508152602001600382015481526020016004820154815260200160058201805461115c90613903565b80601f016020809104026020016040519081016040528092919081815260200182805461118890613903565b80156111d55780601f106111aa576101008083540402835291602001916111d5565b820191906000526020600020905b8154815290600101906020018083116111b857829003601f168201915b505050505081526020016006820180546111ee90613903565b80601f016020809104026020016040519081016040528092919081815260200182805461121a90613903565b80156112675780601f1061123c57610100808354040283529160200191611267565b820191906000526020600020905b81548152906001019060200180831161124a57829003601f168201915b5050505050815260200160078201805461128090613903565b80601f01602080910402602001604051908101604052809291908181526020018280546112ac90613903565b80156112f95780601f106112ce576101008083540402835291602001916112f9565b820191906000526020600020905b8154815290600101906020018083116112dc57829003601f168201915b50505050508152602001600882015481526020016009820160009054906101000a900460ff161515151581526020016009820160019054906101000a900473ffffffffffffffffffffffffffffffffffffffff1673ffffffffffffffffffffffffffffffffffffffff1673ffffffffffffffffffffffffffffffffffffffff16815250508383815181106113905761138f6138a5565b5b602002602001018190525081806113a690613fab565b9250505b8080600101915050610fa2565b5081935050505090565b600560003373ffffffffffffffffffffffffffffffffffffffff1673ffffffffffffffffffffffffffffffffffffffff16815260200190815260200160002060010160149054906101000a900460ff1615611451576040517f08c379a00000000000000000000000000000000000000000000000000000000081526004016114489061403f565b60405180910390fd5b60006001600480549050611465919061405f565b9050600060405180606001604052808381526020013373ffffffffffffffffffffffffffffffffffffffff16815260200160011515815250905060048190806001815401808255809150506001900390600052602060002090600202016000909190919091506000820151816000015560208201518160010160006101000a81548173ffffffffffffffffffffffffffffffffffffffff021916908373ffffffffffffffffffffffffffffffffffffffff16021790555060408201518160010160146101000a81548160ff021916908315150217905550505080600560003373ffffffffffffffffffffffffffffffffffffffff1673ffffffffffffffffffffffffffffffffffffffff1681526020019081526020016000206000820151816000015560208201518160010160006101000a81548173ffffffffffffffffffffffffffffffffffffffff021916908373ffffffffffffffffffffffffffffffffffffffff16021790555060408201518160010160146101000a81548160ff02191690831515021790555090505080600660008481526020019081526020016000206000820151816000015560208201518160010160006101000a81548173ffffffffffffffffffffffffffffffffffffffff021916908373ffffffffffffffffffffffffffffffffffffffff16021790555060408201518160010160146101000a81548160ff021916908315150217905550905050813373ffffffffffffffffffffffffffffffffffffffff167fe29d35093005f4d575e1003753426b57a7f64378ba73332eef9c6ccc2b8decd660405160405180910390a35050565b60008060009054906101000a900473ffffffffffffffffffffffffffffffffffffffff1673ffffffffffffffffffffffffffffffffffffffff163373ffffffffffffffffffffffffffffffffffffffff1614611753576040517f08c379a000000000000000000000000000000000000000000000000000000000815260040161174a90613ef0565b60405180910390fd5b600354905090565b6000600880549050905060006040518061016001604052808381526020018b81526020018a81526020018981526020018881526020018781526020018681526020018581526020018481526020016001151581526020013373ffffffffffffffffffffffffffffffffffffffff16815250905060088190806001815401808255809150506001900390600052602060002090600a02016000909190919091506000820151816000015560208201518160010190816118199190613cae565b50604082015181600201908161182f9190613cae565b50606082015181600301556080820151816004015560a08201518160050190816118599190613cae565b5060c082015181600601908161186f9190613cae565b5060e08201518160070190816118859190613cae565b5061010082015181600801556101208201518160090160006101000a81548160ff0219169083151502179055506101408201518160090160016101000a81548173ffffffffffffffffffffffffffffffffffffffff021916908373ffffffffffffffffffffffffffffffffffffffff160217905550505080600b600084815260200190815260200160002060008201518160000155602082015181600101908161192f9190613cae565b5060408201518160020190816119459190613cae565b50606082015181600301556080820151816004015560a082015181600501908161196f9190613cae565b5060c08201518160060190816119859190613cae565b5060e082015181600701908161199b9190613cae565b5061010082015181600801556101208201518160090160006101000a81548160ff0219169083151502179055506101408201518160090160016101000a81548173ffffffffffffffffffffffffffffffffffffffff021916908373ffffffffffffffffffffffffffffffffffffffff16021790555090505080600c8b604051611a249190613970565b9081526020016040518091039020600082015181600001556020820151816001019081611a519190613cae565b506040820151816002019081611a679190613cae565b50606082015181600301556080820151816004015560a0820151816005019081611a919190613cae565b5060c0820151816006019081611aa79190613cae565b5060e0820151816007019081611abd9190613cae565b5061010082015181600801556101208201518160090160006101000a81548160ff0219169083151502179055506101408201518160090160016101000a81548173ffffffffffffffffffffffffffffffffffffffff021916908373ffffffffffffffffffffffffffffffffffffffff1602179055509050503373ffffffffffffffffffffffffffffffffffffffff168a604051611b5a9190613970565b6040518091039020837f40fb05b814a900c99fa0a76d919dfdeaf3389540e4ca70f97ba40ca9a38f379760405160405180910390a450505050505050505050565b60008103611bde576040517f08c379a0000000000000000000000000000000000000000000000000000000008152600401611bd5906140df565b60405180910390fd5b6008805490508110611c25576040517f08c379a0000000000000000000000000000000000000000000000000000000008152600401611c1c9061414b565b60405180910390fd5b600e600082815260200190815260200160002060009054906101000a900460ff16611c85576040517f08c379a0000000000000000000000000000000000000000000000000000000008152600401611c7c906141b7565b60405180910390fd5b6000805b600d600084815260200190815260200160002080549050811015611d3f573373ffffffffffffffffffffffffffffffffffffffff16600d60008581526020019081526020016000208281548110611ce357611ce26138a5565b5b9060005260206000200160009054906101000a900473ffffffffffffffffffffffffffffffffffffffff1673ffffffffffffffffffffffffffffffffffffffff1603611d325760019150611d3f565b8080600101915050611c89565b5080611d80576040517f08c379a0000000000000000000000000000000000000000000000000000000008152600401611d7790614223565b60405180910390fd5b6000600160009054906101000a900473ffffffffffffffffffffffffffffffffffffffff169050600080600160009054906101000a900473ffffffffffffffffffffffffffffffffffffffff1673ffffffffffffffffffffffffffffffffffffffff163386604051602401611df6929190614252565b6040516020818303038152906040527f40c10f19000000000000000000000000000000000000000000000000000000007bffffffffffffffffffffffffffffffffffffffffffffffffffffffff19166020820180517bffffffffffffffffffffffffffffffffffffffffffffffffffffffff8381831617835250505050604051611e8091906142c2565b6000604051808303816000865af19150503d8060008114611ebd576040519150601f19603f3d011682016040523d82523d6000602084013e611ec2565b606091505b5091509150818015611ef05750600081511480611eef575080806020019051810190611eee9190614305565b5b5b611f2f576040517f08c379a0000000000000000000000000000000000000000000000000000000008152600401611f269061437e565b60405180910390fd5b5050505050565b60008054906101000a900473ffffffffffffffffffffffffffffffffffffffff1673ffffffffffffffffffffffffffffffffffffffff163373ffffffffffffffffffffffffffffffffffffffff1614611fc4576040517f08c379a0000000000000000000000000000000000000000000000000000000008152600401611fbb90613ef0565b60405180910390fd5b600880549050811061200b576040517f08c379a000000000000000000000000000000000000000000000000000000000815260040161200290613a50565b60405180910390fd5b6008818154811061201f5761201e6138a5565b5b90600052602060002090600a02016000808201600090556001820160006120469190612e78565b6002820160006120569190612e78565b600382016000905560048201600090556005820160006120769190612e78565b6006820160006120869190612e78565b6007820160006120969190612e78565b60088201600090556009820160006101000a81549060ff02191690556009820160016101000a81549073ffffffffffffffffffffffffffffffffffffffff0219169055505050565b60606000805b60088054905081101561213b57600060088281548110612107576121066138a5565b5b90600052602060002090600a020160080154111561212e57818061212a90613fab565b9250505b80806001019150506120e4565b5060008167ffffffffffffffff81111561215857612157612f73565b5b60405190808252806020026020018201604052801561219157816020015b61217e612e06565b8152602001906001900390816121765790505b5090506000805b6008805490508110156125ae576000600882815481106121bb576121ba6138a5565b5b90600052602060002090600a02016008015411156125a157600881815481106121e7576121e66138a5565b5b90600052602060002090600a0201604051806101600160405290816000820154815260200160018201805461221b90613903565b80601f016020809104026020016040519081016040528092919081815260200182805461224790613903565b80156122945780601f1061226957610100808354040283529160200191612294565b820191906000526020600020905b81548152906001019060200180831161227757829003601f168201915b505050505081526020016002820180546122ad90613903565b80601f01602080910402602001604051908101604052809291908181526020018280546122d990613903565b80156123265780601f106122fb57610100808354040283529160200191612326565b820191906000526020600020905b81548152906001019060200180831161230957829003601f168201915b50505050508152602001600382015481526020016004820154815260200160058201805461235390613903565b80601f016020809104026020016040519081016040528092919081815260200182805461237f90613903565b80156123cc5780601f106123a1576101008083540402835291602001916123cc565b820191906000526020600020905b8154815290600101906020018083116123af57829003601f168201915b505050505081526020016006820180546123e590613903565b80601f016020809104026020016040519081016040528092919081815260200182805461241190613903565b801561245e5780601f106124335761010080835404028352916020019161245e565b820191906000526020600020905b81548152906001019060200180831161244157829003601f168201915b5050505050815260200160078201805461247790613903565b80601f01602080910402602001604051908101604052809291908181526020018280546124a390613903565b80156124f05780601f106124c5576101008083540402835291602001916124f0565b820191906000526020600020905b8154815290600101906020018083116124d357829003601f168201915b50505050508152602001600882015481526020016009820160009054906101000a900460ff161515151581526020016009820160019054906101000a900473ffffffffffffffffffffffffffffffffffffffff1673ffffffffffffffffffffffffffffffffffffffff1673ffffffffffffffffffffffffffffffffffffffff1681525050838381518110612587576125866138a5565b5b6020026020010181905250818061259d90613fab565b9250505b8080600101915050612198565b5081935050505090565b60008054906101000a900473ffffffffffffffffffffffffffffffffffffffff1673ffffffffffffffffffffffffffffffffffffffff163373ffffffffffffffffffffffffffffffffffffffff1614612646576040517f08c379a000000000000000000000000000000000000000000000000000000000815260040161263d90613ef0565b60405180910390fd5b60006008828154811061265c5761265b6138a5565b5b90600052602060002090600a020190508060090160009054906101000a900460ff166126bd576040517f08c379a00000000000000000000000000000000000000000000000000000000081526004016126b4906143ea565b60405180910390fd5b60098190806001815401808255809150506001900390600052602060002090600a020160009091909190915060008201548160000155600182018160010190816127079190613d96565b506002820181600201908161271c9190613d96565b506003820154816003015560048201548160040155600582018160050190816127459190613d96565b506006820181600601908161275a9190613d96565b506007820181600701908161276f9190613d96565b50600882015481600801556009820160009054906101000a900460ff168160090160006101000a81548160ff0219169083151502179055506009820160019054906101000a900473ffffffffffffffffffffffffffffffffffffffff168160090160016101000a81548173ffffffffffffffffffffffffffffffffffffffff021916908373ffffffffffffffffffffffffffffffffffffffff16021790555050506001600a600084815260200190815260200160002060006101000a81548160ff02191690831515021790555060008160090160006101000a81548160ff0219169083151502179055505050565b612865612eb8565b60066000838152602001908152602001600020604051806060016040529081600082015481526020016001820160009054906101000a900473ffffffffffffffffffffffffffffffffffffffff1673ffffffffffffffffffffffffffffffffffffffff1673ffffffffffffffffffffffffffffffffffffffff1681526020016001820160149054906101000a900460ff1615151515815250509050919050565b60008073ffffffffffffffffffffffffffffffffffffffff163373ffffffffffffffffffffffffffffffffffffffff1603612975576040517f08c379a000000000000000000000000000000000000000000000000000000000815260040161296c90613f5c565b60405180910390fd5b600760003373ffffffffffffffffffffffffffffffffffffffff1673ffffffffffffffffffffffffffffffffffffffff16815260200190815260200160002054905090565b600081036129fd576040517f08c379a00000000000000000000000000000000000000000000000000000000081526004016129f4906140df565b60405180910390fd5b600060088281548110612a1357612a126138a5565b5b90600052602060002090600a020190508060090160009054906101000a900460ff16612a74576040517f08c379a0000000000000000000000000000000000000000000000000000000008152600401612a6b90614456565b60405180910390fd5b8060080154600260009054906101000a900473ffffffffffffffffffffffffffffffffffffffff1673ffffffffffffffffffffffffffffffffffffffff166370a08231336040518263ffffffff1660e01b8152600401612ad49190614476565b602060405180830381865afa158015612af1573d6000803e3d6000fd5b505050506040513d601f19601f82011682018060405250810190612b1591906144a6565b1015612b56576040517f08c379a0000000000000000000000000000000000000000000000000000000008152600401612b4d9061451f565b60405180910390fd5b600260009054906101000a900473ffffffffffffffffffffffffffffffffffffffff1673ffffffffffffffffffffffffffffffffffffffff166323b872dd333084600801546040518463ffffffff1660e01b8152600401612bb99392919061453f565b6020604051808303816000875af1158015612bd8573d6000803e3d6000fd5b505050506040513d601f19601f82011682018060405250810190612bfc9190614305565b612c3b576040517f08c379a0000000000000000000000000000000000000000000000000000000008152600401612c32906145c2565b60405180910390fd5b6000606460638360080154612c5091906145e2565b612c5a9190614653565b90506000818360080154612c6e9190614684565b9050600260009054906101000a900473ffffffffffffffffffffffffffffffffffffffff1673ffffffffffffffffffffffffffffffffffffffff1663a9059cbb8460090160019054906101000a900473ffffffffffffffffffffffffffffffffffffffff16846040518363ffffffff1660e01b8152600401612cf1929190614252565b6020604051808303816000875af1158015612d10573d6000803e3d6000fd5b505050506040513d601f19601f82011682018060405250810190612d349190614305565b612d73576040517f08c379a0000000000000000000000000000000000000000000000000000000008152600401612d6a90614704565b60405180910390fd5b8060036000828254612d85919061405f565b92505081905550600d6000858152602001908152602001600020339080600181540180825580915050600190039060005260206000200160009091909190916101000a81548173ffffffffffffffffffffffffffffffffffffffff021916908373ffffffffffffffffffffffffffffffffffffffff16021790555050505050565b604051806101600160405280600081526020016060815260200160608152602001600081526020016000815260200160608152602001606081526020016060815260200160008152602001600015158152602001600073ffffffffffffffffffffffffffffffffffffffff1681525090565b508054612e8490613903565b6000825580601f10612e965750612eb5565b601f016020900490600052602060002090810190612eb49190612ef1565b5b50565b604051806060016040528060008152602001600073ffffffffffffffffffffffffffffffffffffffff1681526020016000151581525090565b5b80821115612f0a576000816000905550600101612ef2565b5090565b6000604051905090565b600080fd5b600080fd5b6000819050919050565b612f3581612f22565b8114612f4057600080fd5b50565b600081359050612f5281612f2c565b92915050565b600080fd5b600080fd5b6000601f19601f8301169050919050565b7f4e487b7100000000000000000000000000000000000000000000000000000000600052604160045260246000fd5b612fab82612f62565b810181811067ffffffffffffffff82111715612fca57612fc9612f73565b5b80604052505050565b6000612fdd612f0e565b9050612fe98282612fa2565b919050565b600067ffffffffffffffff82111561300957613008612f73565b5b61301282612f62565b9050602081019050919050565b82818337600083830152505050565b600061304161303c84612fee565b612fd3565b90508281526020810184848401111561305d5761305c612f5d565b5b61306884828561301f565b509392505050565b600082601f83011261308557613084612f58565b5b813561309584826020860161302e565b91505092915050565b600080604083850312156130b5576130b4612f18565b5b60006130c385828601612f43565b925050602083013567ffffffffffffffff8111156130e4576130e3612f1d565b5b6130f085828601613070565b9150509250929050565b61310381612f22565b82525050565b600081519050919050565b600082825260208201905092915050565b60005b83811015613143578082015181840152602081019050613128565b60008484015250505050565b600061315a82613109565b6131648185613114565b9350613174818560208601613125565b61317d81612f62565b840191505092915050565b60008115159050919050565b61319d81613188565b82525050565b600073ffffffffffffffffffffffffffffffffffffffff82169050919050565b60006131ce826131a3565b9050919050565b6131de816131c3565b82525050565b6000610160830160008301516131fd60008601826130fa565b5060208301518482036020860152613215828261314f565b9150506040830151848203604086015261322f828261314f565b915050606083015161324460608601826130fa565b50608083015161325760808601826130fa565b5060a083015184820360a086015261326f828261314f565b91505060c083015184820360c0860152613289828261314f565b91505060e083015184820360e08601526132a3828261314f565b9150506101008301516132ba6101008601826130fa565b506101208301516132cf610120860182613194565b506101408301516132e46101408601826131d5565b508091505092915050565b6000602082019050818103600083015261330981846131e4565b905092915050565b60008060008060008060008060006101208a8c03121561333457613333612f18565b5b60006133428c828d01612f43565b99505060208a013567ffffffffffffffff81111561336357613362612f1d565b5b61336f8c828d01613070565b98505060408a013567ffffffffffffffff8111156133905761338f612f1d565b5b61339c8c828d01613070565b97505060606133ad8c828d01612f43565b96505060806133be8c828d01612f43565b95505060a08a013567ffffffffffffffff8111156133df576133de612f1d565b5b6133eb8c828d01613070565b94505060c08a013567ffffffffffffffff81111561340c5761340b612f1d565b5b6134188c828d01613070565b93505060e08a013567ffffffffffffffff81111561343957613438612f1d565b5b6134458c828d01613070565b9250506101006134578c828d01612f43565b9150509295985092959850929598565b613470816131c3565b811461347b57600080fd5b50565b60008135905061348d81613467565b92915050565b6000602082840312156134a9576134a8612f18565b5b60006134b78482850161347e565b91505092915050565b6134c981612f22565b82525050565b60006020820190506134e460008301846134c0565b92915050565b600081519050919050565b600082825260208201905092915050565b6000819050602082019050919050565b60006101608301600083015161352f60008601826130fa565b5060208301518482036020860152613547828261314f565b91505060408301518482036040860152613561828261314f565b915050606083015161357660608601826130fa565b50608083015161358960808601826130fa565b5060a083015184820360a08601526135a1828261314f565b91505060c083015184820360c08601526135bb828261314f565b91505060e083015184820360e08601526135d5828261314f565b9150506101008301516135ec6101008601826130fa565b50610120830151613601610120860182613194565b506101408301516136166101408601826131d5565b508091505092915050565b600061362d8383613516565b905092915050565b6000602082019050919050565b600061364d826134ea565b61365781856134f5565b93508360208202850161366985613506565b8060005b858110156136a557848403895281516136868582613621565b945061369183613635565b925060208a0199505060018101905061366d565b50829750879550505050505092915050565b600060208201905081810360008301526136d18184613642565b905092915050565b600080600080600080600080610100898b0312156136fa576136f9612f18565b5b600089013567ffffffffffffffff81111561371857613717612f1d565b5b6137248b828c01613070565b985050602089013567ffffffffffffffff81111561374557613744612f1d565b5b6137518b828c01613070565b97505060406137628b828c01612f43565b96505060606137738b828c01612f43565b955050608089013567ffffffffffffffff81111561379457613793612f1d565b5b6137a08b828c01613070565b94505060a089013567ffffffffffffffff8111156137c1576137c0612f1d565b5b6137cd8b828c01613070565b93505060c089013567ffffffffffffffff8111156137ee576137ed612f1d565b5b6137fa8b828c01613070565b92505060e061380b8b828c01612f43565b9150509295985092959890939650565b60006020828403121561383157613830612f18565b5b600061383f84828501612f43565b91505092915050565b60608201600082015161385e60008501826130fa565b50602082015161387160208501826131d5565b5060408201516138846040850182613194565b50505050565b600060608201905061389f6000830184613848565b92915050565b7f4e487b7100000000000000000000000000000000000000000000000000000000600052603260045260246000fd5b7f4e487b7100000000000000000000000000000000000000000000000000000000600052602260045260246000fd5b6000600282049050600182168061391b57607f821691505b60208210810361392e5761392d6138d4565b5b50919050565b600081905092915050565b600061394a82613109565b6139548185613934565b9350613964818560208601613125565b80840191505092915050565b600061397c828461393f565b915081905092915050565b600082825260208201905092915050565b7f4576656e74206e6f7420666f756e640000000000000000000000000000000000600082015250565b60006139ce600f83613987565b91506139d982613998565b602082019050919050565b600060208201905081810360008301526139fd816139c1565b9050919050565b7f496e76616c69642070726f6772616d2049440000000000000000000000000000600082015250565b6000613a3a601283613987565b9150613a4582613a04565b602082019050919050565b60006020820190508181036000830152613a6981613a2d565b9050919050565b7f596f7520617265206e6f74207468652063726561746f72206f6620746869732060008201527f6576656e74000000000000000000000000000000000000000000000000000000602082015250565b6000613acc602583613987565b9150613ad782613a70565b604082019050919050565b60006020820190508181036000830152613afb81613abf565b9050919050565b60008190508160005260206000209050919050565b60006020601f8301049050919050565b600082821b905092915050565b600060088302613b647fffffffffffffffffffffffffffffffffffffffffffffffffffffffffffffffff82613b27565b613b6e8683613b27565b95508019841693508086168417925050509392505050565b6000819050919050565b6000613bab613ba6613ba184612f22565b613b86565b612f22565b9050919050565b6000819050919050565b613bc583613b90565b613bd9613bd182613bb2565b848454613b34565b825550505050565b600090565b613bee613be1565b613bf9818484613bbc565b505050565b5b81811015613c1d57613c12600082613be6565b600181019050613bff565b5050565b601f821115613c6257613c3381613b02565b613c3c84613b17565b81016020851015613c4b578190505b613c5f613c5785613b17565b830182613bfe565b50505b505050565b600082821c905092915050565b6000613c8560001984600802613c67565b1980831691505092915050565b6000613c9e8383613c74565b9150826002028217905092915050565b613cb782613109565b67ffffffffffffffff811115613cd057613ccf612f73565b5b613cda8254613903565b613ce5828285613c21565b600060209050601f831160018114613d185760008415613d06578287015190505b613d108582613c92565b865550613d78565b601f198416613d2686613b02565b60005b82811015613d4e57848901518255600182019150602085019450602081019050613d29565b86831015613d6b5784890151613d67601f891682613c74565b8355505b6001600288020188555050505b505050505050565b600081549050613d8f81613903565b9050919050565b818103613da4575050613e7c565b613dad82613d80565b67ffffffffffffffff811115613dc657613dc5612f73565b5b613dd08254613903565b613ddb828285613c21565b6000601f831160018114613e0a5760008415613df8578287015490505b613e028582613c92565b865550613e75565b601f198416613e1887613b02565b9650613e2386613b02565b60005b82811015613e4b57848901548255600182019150600185019450602081019050613e26565b86831015613e685784890154613e64601f891682613c74565b8355505b6001600288020188555050505b5050505050505b565b7f4f6e6c79206f776e65722063616e2063616c6c20746869732066756e6374696f60008201527f6e00000000000000000000000000000000000000000000000000000000000000602082015250565b6000613eda602183613987565b9150613ee582613e7e565b604082019050919050565b60006020820190508181036000830152613f0981613ecd565b9050919050565b7f41646472657373207a65726f2064657465637465640000000000000000000000600082015250565b6000613f46601583613987565b9150613f5182613f10565b602082019050919050565b60006020820190508181036000830152613f7581613f39565b9050919050565b7f4e487b7100000000000000000000000000000000000000000000000000000000600052601160045260246000fd5b6000613fb682612f22565b91507fffffffffffffffffffffffffffffffffffffffffffffffffffffffffffffffff8203613fe857613fe7613f7c565b5b600182019050919050565b7f5573657220616c72656164792072656769737465726564000000000000000000600082015250565b6000614029601783613987565b915061403482613ff3565b602082019050919050565b600060208201905081810360008301526140588161401c565b9050919050565b600061406a82612f22565b915061407583612f22565b925082820190508082111561408d5761408c613f7c565b5b92915050565b7f496e76616c696420496400000000000000000000000000000000000000000000600082015250565b60006140c9600a83613987565b91506140d482614093565b602082019050919050565b600060208201905081810360008301526140f8816140bc565b9050919050565b7f496e76616c6964206576656e7420494400000000000000000000000000000000600082015250565b6000614135601083613987565b9150614140826140ff565b602082019050919050565b6000602082019050818103600083015261416481614128565b9050919050565b7f4576656e74206973207374696c6c206f6e676f696e6700000000000000000000600082015250565b60006141a1601683613987565b91506141ac8261416b565b602082019050919050565b600060208201905081810360008301526141d081614194565b9050919050565b7f596f7520646964206e6f7420617474656e642074686973206576656e74000000600082015250565b600061420d601d83613987565b9150614218826141d7565b602082019050919050565b6000602082019050818103600083015261423c81614200565b9050919050565b61424c816131c3565b82525050565b60006040820190506142676000830185614243565b61427460208301846134c0565b9392505050565b600081519050919050565b600081905092915050565b600061429c8261427b565b6142a68185614286565b93506142b6818560208601613125565b80840191505092915050565b60006142ce8284614291565b915081905092915050565b6142e281613188565b81146142ed57600080fd5b50565b6000815190506142ff816142d9565b92915050565b60006020828403121561431b5761431a612f18565b5b6000614329848285016142f0565b91505092915050565b7f4d696e74696e67206661696c6564000000000000000000000000000000000000600082015250565b6000614368600e83613987565b915061437382614332565b602082019050919050565b600060208201905081810360008301526143978161435b565b9050919050565b7f50726f6772616d206973206e6f74206163746976650000000000000000000000600082015250565b60006143d4601583613987565b91506143df8261439e565b602082019050919050565b60006020820190508181036000830152614403816143c7565b9050919050565b7f4576656e74206973206e6f742061637469766500000000000000000000000000600082015250565b6000614440601383613987565b915061444b8261440a565b602082019050919050565b6000602082019050818103600083015261446f81614433565b9050919050565b600060208201905061448b6000830184614243565b92915050565b6000815190506144a081612f2c565b92915050565b6000602082840312156144bc576144bb612f18565b5b60006144ca84828501614491565b91505092915050565b7f496e73756666696369656e7420746f6b656e2062616c616e6365000000000000600082015250565b6000614509601a83613987565b9150614514826144d3565b602082019050919050565b60006020820190508181036000830152614538816144fc565b9050919050565b60006060820190506145546000830186614243565b6145616020830185614243565b61456e60408301846134c0565b949350505050565b7f546f6b656e207472616e73666572206661696c65640000000000000000000000600082015250565b60006145ac601583613987565b91506145b782614576565b602082019050919050565b600060208201905081810360008301526145db8161459f565b9050919050565b60006145ed82612f22565b91506145f883612f22565b925082820261460681612f22565b9150828204841483151761461d5761461c613f7c565b5b5092915050565b7f4e487b7100000000000000000000000000000000000000000000000000000000600052601260045260246000fd5b600061465e82612f22565b915061466983612f22565b92508261467957614678614624565b5b828204905092915050565b600061468f82612f22565b915061469a83612f22565b92508282039050818111156146b2576146b1613f7c565b5b92915050565b7f5472616e7366657220746f2063726561746f72206661696c6564000000000000600082015250565b60006146ee601a83613987565b91506146f9826146b8565b602082019050919050565b6000602082019050818103600083015261471d816146e1565b905091905056fea2646970667358221220b71da116e7d554fad5c860f5b7cf33e9ec58e0545bbc3a5df0a5a126efb2259864736f6c63430008180033",
  "linkReferences": {},
  "deployedLinkReferences": {}
}