{
  "_format": "hh-sol-artifact-1",
  "contractName": "EvenStarPOA",
  "sourceName": "contracts/EvenStarPOA.sol",
  "abi": [
    {
      "inputs": [
        {
          "internalType": "address",
          "name": "_owner",
          "type": "address"
        }
      ],
      "stateMutability": "nonpayable",
      "type": "constructor"
    },
    {
      "inputs": [
        {
          "internalType": "address",
          "name": "sender",
          "type": "address"
        },
        {
          "internalType": "uint256",
          "name": "tokenId",
          "type": "uint256"
        },
        {
          "internalType": "address",
          "name": "owner",
          "type": "address"
        }
      ],
      "name": "ERC721IncorrectOwner",
      "type": "error"
    },
    {
      "inputs": [
        {
          "internalType": "address",
          "name": "operator",
          "type": "address"
        },
        {
          "internalType": "uint256",
          "name": "tokenId",
          "type": "uint256"
        }
      ],
      "name": "ERC721InsufficientApproval",
      "type": "error"
    },
    {
      "inputs": [
        {
          "internalType": "address",
          "name": "approver",
          "type": "address"
        }
      ],
      "name": "ERC721InvalidApprover",
      "type": "error"
    },
    {
      "inputs": [
        {
          "internalType": "address",
          "name": "operator",
          "type": "address"
        }
      ],
      "name": "ERC721InvalidOperator",
      "type": "error"
    },
    {
      "inputs": [
        {
          "internalType": "address",
          "name": "owner",
          "type": "address"
        }
      ],
      "name": "ERC721InvalidOwner",
      "type": "error"
    },
    {
      "inputs": [
        {
          "internalType": "address",
          "name": "receiver",
          "type": "address"
        }
      ],
      "name": "ERC721InvalidReceiver",
      "type": "error"
    },
    {
      "inputs": [
        {
          "internalType": "address",
          "name": "sender",
          "type": "address"
        }
      ],
      "name": "ERC721InvalidSender",
      "type": "error"
    },
    {
      "inputs": [
        {
          "internalType": "uint256",
          "name": "tokenId",
          "type": "uint256"
        }
      ],
      "name": "ERC721NonexistentToken",
      "type": "error"
    },
    {
      "anonymous": false,
      "inputs": [
        {
          "indexed": true,
          "internalType": "address",
          "name": "owner",
          "type": "address"
        },
        {
          "indexed": true,
          "internalType": "address",
          "name": "approved",
          "type": "address"
        },
        {
          "indexed": true,
          "internalType": "uint256",
          "name": "tokenId",
          "type": "uint256"
        }
      ],
      "name": "Approval",
      "type": "event"
    },
    {
      "anonymous": false,
      "inputs": [
        {
          "indexed": true,
          "internalType": "address",
          "name": "owner",
          "type": "address"
        },
        {
          "indexed": true,
          "internalType": "address",
          "name": "operator",
          "type": "address"
        },
        {
          "indexed": false,
          "internalType": "bool",
          "name": "approved",
          "type": "bool"
        }
      ],
      "name": "ApprovalForAll",
      "type": "event"
    },
    {
      "anonymous": false,
      "inputs": [
        {
          "indexed": true,
          "internalType": "address",
          "name": "from",
          "type": "address"
        },
        {
          "indexed": true,
          "internalType": "address",
          "name": "to",
          "type": "address"
        },
        {
          "indexed": true,
          "internalType": "uint256",
          "name": "tokenId",
          "type": "uint256"
        }
      ],
      "name": "Transfer",
      "type": "event"
    },
    {
      "inputs": [
        {
          "internalType": "address",
          "name": "to",
          "type": "address"
        },
        {
          "internalType": "uint256",
          "name": "tokenId",
          "type": "uint256"
        }
      ],
      "name": "approve",
      "outputs": [],
      "stateMutability": "nonpayable",
      "type": "function"
    },
    {
      "inputs": [
        {
          "internalType": "address",
          "name": "owner",
          "type": "address"
        }
      ],
      "name": "balanceOf",
      "outputs": [
        {
          "internalType": "uint256",
          "name": "",
          "type": "uint256"
        }
      ],
      "stateMutability": "view",
      "type": "function"
    },
    {
      "inputs": [
        {
          "internalType": "uint256",
          "name": "tokenId",
          "type": "uint256"
        }
      ],
      "name": "getApproved",
      "outputs": [
        {
          "internalType": "address",
          "name": "",
          "type": "address"
        }
      ],
      "stateMutability": "view",
      "type": "function"
    },
    {
      "inputs": [
        {
          "internalType": "address",
          "name": "owner",
          "type": "address"
        },
        {
          "internalType": "address",
          "name": "operator",
          "type": "address"
        }
      ],
      "name": "isApprovedForAll",
      "outputs": [
        {
          "internalType": "bool",
          "name": "",
          "type": "bool"
        }
      ],
      "stateMutability": "view",
      "type": "function"
    },
    {
      "inputs": [],
      "name": "name",
      "outputs": [
        {
          "internalType": "string",
          "name": "",
          "type": "string"
        }
      ],
      "stateMutability": "view",
      "type": "function"
    },
    {
      "inputs": [
        {
          "internalType": "uint256",
          "name": "tokenId",
          "type": "uint256"
        }
      ],
      "name": "ownerOf",
      "outputs": [
        {
          "internalType": "address",
          "name": "",
          "type": "address"
        }
      ],
      "stateMutability": "view",
      "type": "function"
    },
    {
      "inputs": [
        {
          "internalType": "address",
          "name": "to",
          "type": "address"
        }
      ],
      "name": "safeMint",
      "outputs": [],
      "stateMutability": "nonpayable",
      "type": "function"
    },
    {
      "inputs": [
        {
          "internalType": "address",
          "name": "from",
          "type": "address"
        },
        {
          "internalType": "address",
          "name": "to",
          "type": "address"
        },
        {
          "internalType": "uint256",
          "name": "tokenId",
          "type": "uint256"
        }
      ],
      "name": "safeTransferFrom",
      "outputs": [],
      "stateMutability": "nonpayable",
      "type": "function"
    },
    {
      "inputs": [
        {
          "internalType": "address",
          "name": "from",
          "type": "address"
        },
        {
          "internalType": "address",
          "name": "to",
          "type": "address"
        },
        {
          "internalType": "uint256",
          "name": "tokenId",
          "type": "uint256"
        },
        {
          "internalType": "bytes",
          "name": "data",
          "type": "bytes"
        }
      ],
      "name": "safeTransferFrom",
      "outputs": [],
      "stateMutability": "nonpayable",
      "type": "function"
    },
    {
      "inputs": [
        {
          "internalType": "address",
          "name": "operator",
          "type": "address"
        },
        {
          "internalType": "bool",
          "name": "approved",
          "type": "bool"
        }
      ],
      "name": "setApprovalForAll",
      "outputs": [],
      "stateMutability": "nonpayable",
      "type": "function"
    },
    {
      "inputs": [
        {
          "internalType": "bytes4",
          "name": "interfaceId",
          "type": "bytes4"
        }
      ],
      "name": "supportsInterface",
      "outputs": [
        {
          "internalType": "bool",
          "name": "",
          "type": "bool"
        }
      ],
      "stateMutability": "view",
      "type": "function"
    },
    {
      "inputs": [],
      "name": "symbol",
      "outputs": [
        {
          "internalType": "string",
          "name": "",
          "type": "string"
        }
      ],
      "stateMutability": "view",
      "type": "function"
    },
    {
      "inputs": [
        {
          "internalType": "uint256",
          "name": "tokenId",
          "type": "uint256"
        }
      ],
      "name": "tokenURI",
      "outputs": [
        {
          "internalType": "string",
          "name": "",
          "type": "string"
        }
      ],
      "stateMutability": "view",
      "type": "function"
    },
    {
      "inputs": [
        {
          "internalType": "address",
          "name": "from",
          "type": "address"
        },
        {
          "internalType": "address",
          "name": "to",
          "type": "address"
        },
        {
          "internalType": "uint256",
          "name": "tokenId",
          "type": "uint256"
        }
      ],
      "name": "transferFrom",
      "outputs": [],
      "stateMutability": "nonpayable",
      "type": "function"
    }
  ],
  "bytecode": "0x60806040523480156200001157600080fd5b50604051620024a0380380620024a083398181016040528101906200003791906200017b565b6040518060400160405280600b81526020017f4576656e53746172504f410000000000000000000000000000000000000000008152506040518060400160405280600381526020017f45535000000000000000000000000000000000000000000000000000000000008152508160009081620000b4919062000427565b508060019081620000c6919062000427565b50505080600660006101000a81548173ffffffffffffffffffffffffffffffffffffffff021916908373ffffffffffffffffffffffffffffffffffffffff160217905550506200050e565b600080fd5b600073ffffffffffffffffffffffffffffffffffffffff82169050919050565b6000620001438262000116565b9050919050565b620001558162000136565b81146200016157600080fd5b50565b60008151905062000175816200014a565b92915050565b60006020828403121562000194576200019362000111565b5b6000620001a48482850162000164565b91505092915050565b600081519050919050565b7f4e487b7100000000000000000000000000000000000000000000000000000000600052604160045260246000fd5b7f4e487b7100000000000000000000000000000000000000000000000000000000600052602260045260246000fd5b600060028204905060018216806200022f57607f821691505b602082108103620002455762000244620001e7565b5b50919050565b60008190508160005260206000209050919050565b60006020601f8301049050919050565b600082821b905092915050565b600060088302620002af7fffffffffffffffffffffffffffffffffffffffffffffffffffffffffffffffff8262000270565b620002bb868362000270565b95508019841693508086168417925050509392505050565b6000819050919050565b6000819050919050565b60006200030862000302620002fc84620002d3565b620002dd565b620002d3565b9050919050565b6000819050919050565b6200032483620002e7565b6200033c62000333826200030f565b8484546200027d565b825550505050565b600090565b6200035362000344565b6200036081848462000319565b505050565b5b8181101562000388576200037c60008262000349565b60018101905062000366565b5050565b601f821115620003d757620003a1816200024b565b620003ac8462000260565b81016020851015620003bc578190505b620003d4620003cb8562000260565b83018262000365565b50505b505050565b600082821c905092915050565b6000620003fc60001984600802620003dc565b1980831691505092915050565b6000620004178383620003e9565b9150826002028217905092915050565b6200043282620001ad565b67ffffffffffffffff8111156200044e576200044d620001b8565b5b6200045a825462000216565b620004678282856200038c565b600060209050601f8311600181146200049f57600084156200048a578287015190505b62000496858262000409565b86555062000506565b601f198416620004af866200024b565b60005b82811015620004d957848901518255600182019150602085019450602081019050620004b2565b86831015620004f95784890151620004f5601f891682620003e9565b8355505b6001600288020188555050505b505050505050565b611f82806200051e6000396000f3fe608060405234801561001057600080fd5b50600436106100ea5760003560e01c80636352211e1161008c578063a22cb46511610066578063a22cb4651461025b578063b88d4fde14610277578063c87b56dd14610293578063e985e9c5146102c3576100ea565b80636352211e146101dd57806370a082311461020d57806395d89b411461023d576100ea565b8063095ea7b3116100c8578063095ea7b31461016d57806323b872dd1461018957806340d097c3146101a557806342842e0e146101c1576100ea565b806301ffc9a7146100ef57806306fdde031461011f578063081812fc1461013d575b600080fd5b610109600480360381019061010491906116e9565b6102f3565b6040516101169190611731565b60405180910390f35b6101276103d5565b60405161013491906117dc565b60405180910390f35b61015760048036038101906101529190611834565b610467565b60405161016491906118a2565b60405180910390f35b610187600480360381019061018291906118e9565b610483565b005b6101a3600480360381019061019e9190611929565b610499565b005b6101bf60048036038101906101ba919061197c565b61059b565b005b6101db60048036038101906101d69190611929565b610654565b005b6101f760048036038101906101f29190611834565b610674565b60405161020491906118a2565b60405180910390f35b6102276004803603810190610222919061197c565b610686565b60405161023491906119b8565b60405180910390f35b610245610740565b60405161025291906117dc565b60405180910390f35b610275600480360381019061027091906119ff565b6107d2565b005b610291600480360381019061028c9190611b74565b6107e8565b005b6102ad60048036038101906102a89190611834565b610805565b6040516102ba91906117dc565b60405180910390f35b6102dd60048036038101906102d89190611bf7565b61086e565b6040516102ea9190611731565b60405180910390f35b60007f80ac58cd000000000000000000000000000000000000000000000000000000007bffffffffffffffffffffffffffffffffffffffffffffffffffffffff1916827bffffffffffffffffffffffffffffffffffffffffffffffffffffffff191614806103be57507f5b5e139f000000000000000000000000000000000000000000000000000000007bffffffffffffffffffffffffffffffffffffffffffffffffffffffff1916827bffffffffffffffffffffffffffffffffffffffffffffffffffffffff1916145b806103ce57506103cd82610902565b5b9050919050565b6060600080546103e490611c66565b80601f016020809104026020016040519081016040528092919081815260200182805461041090611c66565b801561045d5780601f106104325761010080835404028352916020019161045d565b820191906000526020600020905b81548152906001019060200180831161044057829003601f168201915b5050505050905090565b60006104728261096c565b5061047c826109f4565b9050919050565b6104958282610490610a31565b610a39565b5050565b600073ffffffffffffffffffffffffffffffffffffffff168273ffffffffffffffffffffffffffffffffffffffff160361050b5760006040517f64a0ae9200000000000000000000000000000000000000000000000000000000815260040161050291906118a2565b60405180910390fd5b600061051f838361051a610a31565b610a4b565b90508373ffffffffffffffffffffffffffffffffffffffff168173ffffffffffffffffffffffffffffffffffffffff1614610595578382826040517f64283d7b00000000000000000000000000000000000000000000000000000000815260040161058c93929190611c97565b60405180910390fd5b50505050565b600660009054906101000a900473ffffffffffffffffffffffffffffffffffffffff1673ffffffffffffffffffffffffffffffffffffffff163373ffffffffffffffffffffffffffffffffffffffff161461062b576040517f08c379a000000000000000000000000000000000000000000000000000000000815260040161062290611d1a565b60405180910390fd5b60006007600081548092919061064090611d69565b9190505590506106508282610c65565b5050565b61066f838383604051806020016040528060008152506107e8565b505050565b600061067f8261096c565b9050919050565b60008073ffffffffffffffffffffffffffffffffffffffff168273ffffffffffffffffffffffffffffffffffffffff16036106f95760006040517f89c62b640000000000000000000000000000000000000000000000000000000081526004016106f091906118a2565b60405180910390fd5b600360008373ffffffffffffffffffffffffffffffffffffffff1673ffffffffffffffffffffffffffffffffffffffff168152602001908152602001600020549050919050565b60606001805461074f90611c66565b80601f016020809104026020016040519081016040528092919081815260200182805461077b90611c66565b80156107c85780601f1061079d576101008083540402835291602001916107c8565b820191906000526020600020905b8154815290600101906020018083116107ab57829003601f168201915b5050505050905090565b6107e46107dd610a31565b8383610c83565b5050565b6107f3848484610499565b6107ff84848484610df2565b50505050565b60606108108261096c565b50600061081b610fa9565b9050600081511161083b5760405180602001604052806000815250610866565b8061084584610fc0565b604051602001610856929190611ded565b6040516020818303038152906040525b915050919050565b6000600560008473ffffffffffffffffffffffffffffffffffffffff1673ffffffffffffffffffffffffffffffffffffffff16815260200190815260200160002060008373ffffffffffffffffffffffffffffffffffffffff1673ffffffffffffffffffffffffffffffffffffffff16815260200190815260200160002060009054906101000a900460ff16905092915050565b60007f01ffc9a7000000000000000000000000000000000000000000000000000000007bffffffffffffffffffffffffffffffffffffffffffffffffffffffff1916827bffffffffffffffffffffffffffffffffffffffffffffffffffffffff1916149050919050565b6000806109788361108e565b9050600073ffffffffffffffffffffffffffffffffffffffff168173ffffffffffffffffffffffffffffffffffffffff16036109eb57826040517f7e2732890000000000000000000000000000000000000000000000000000000081526004016109e291906119b8565b60405180910390fd5b80915050919050565b60006004600083815260200190815260200160002060009054906101000a900473ffffffffffffffffffffffffffffffffffffffff169050919050565b600033905090565b610a4683838360016110cb565b505050565b600080610a578461108e565b9050600073ffffffffffffffffffffffffffffffffffffffff168373ffffffffffffffffffffffffffffffffffffffff1614610a9957610a98818486611290565b5b600073ffffffffffffffffffffffffffffffffffffffff168173ffffffffffffffffffffffffffffffffffffffff1614610b2a57610adb6000856000806110cb565b6001600360008373ffffffffffffffffffffffffffffffffffffffff1673ffffffffffffffffffffffffffffffffffffffff168152602001908152602001600020600082825403925050819055505b600073ffffffffffffffffffffffffffffffffffffffff168573ffffffffffffffffffffffffffffffffffffffff1614610bad576001600360008773ffffffffffffffffffffffffffffffffffffffff1673ffffffffffffffffffffffffffffffffffffffff168152602001908152602001600020600082825401925050819055505b846002600086815260200190815260200160002060006101000a81548173ffffffffffffffffffffffffffffffffffffffff021916908373ffffffffffffffffffffffffffffffffffffffff160217905550838573ffffffffffffffffffffffffffffffffffffffff168273ffffffffffffffffffffffffffffffffffffffff167fddf252ad1be2c89b69c2b068fc378daa952ba7f163c4a11628f55a4df523b3ef60405160405180910390a4809150509392505050565b610c7f828260405180602001604052806000815250611354565b5050565b600073ffffffffffffffffffffffffffffffffffffffff168273ffffffffffffffffffffffffffffffffffffffff1603610cf457816040517f5b08ba18000000000000000000000000000000000000000000000000000000008152600401610ceb91906118a2565b60405180910390fd5b80600560008573ffffffffffffffffffffffffffffffffffffffff1673ffffffffffffffffffffffffffffffffffffffff16815260200190815260200160002060008473ffffffffffffffffffffffffffffffffffffffff1673ffffffffffffffffffffffffffffffffffffffff16815260200190815260200160002060006101000a81548160ff0219169083151502179055508173ffffffffffffffffffffffffffffffffffffffff168373ffffffffffffffffffffffffffffffffffffffff167f17307eab39ab6107e8899845ad3d59bd9653f200f220920489ca2b5937696c3183604051610de59190611731565b60405180910390a3505050565b60008373ffffffffffffffffffffffffffffffffffffffff163b1115610fa3578273ffffffffffffffffffffffffffffffffffffffff1663150b7a02610e36610a31565b8685856040518563ffffffff1660e01b8152600401610e589493929190611e66565b6020604051808303816000875af1925050508015610e9457506040513d601f19601f82011682018060405250810190610e919190611ec7565b60015b610f18573d8060008114610ec4576040519150601f19603f3d011682016040523d82523d6000602084013e610ec9565b606091505b506000815103610f1057836040517f64a0ae92000000000000000000000000000000000000000000000000000000008152600401610f0791906118a2565b60405180910390fd5b805181602001fd5b63150b7a0260e01b7bffffffffffffffffffffffffffffffffffffffffffffffffffffffff1916817bffffffffffffffffffffffffffffffffffffffffffffffffffffffff191614610fa157836040517f64a0ae92000000000000000000000000000000000000000000000000000000008152600401610f9891906118a2565b60405180910390fd5b505b50505050565b606060405180602001604052806000815250905090565b606060006001610fcf84611370565b01905060008167ffffffffffffffff811115610fee57610fed611a49565b5b6040519080825280601f01601f1916602001820160405280156110205781602001600182028036833780820191505090505b509050600082602001820190505b600115611083578080600190039150507f3031323334353637383961626364656600000000000000000000000000000000600a86061a8153600a858161107757611076611ef4565b5b0494506000850361102e575b819350505050919050565b60006002600083815260200190815260200160002060009054906101000a900473ffffffffffffffffffffffffffffffffffffffff169050919050565b80806111045750600073ffffffffffffffffffffffffffffffffffffffff168273ffffffffffffffffffffffffffffffffffffffff1614155b156112385760006111148461096c565b9050600073ffffffffffffffffffffffffffffffffffffffff168373ffffffffffffffffffffffffffffffffffffffff161415801561117f57508273ffffffffffffffffffffffffffffffffffffffff168173ffffffffffffffffffffffffffffffffffffffff1614155b80156111925750611190818461086e565b155b156111d457826040517fa9fbf51f0000000000000000000000000000000000000000000000000000000081526004016111cb91906118a2565b60405180910390fd5b811561123657838573ffffffffffffffffffffffffffffffffffffffff168273ffffffffffffffffffffffffffffffffffffffff167f8c5be1e5ebec7d5bd14f71427d1e84f3dd0314c0f7b2291e5b200ac8c7c3b92560405160405180910390a45b505b836004600085815260200190815260200160002060006101000a81548173ffffffffffffffffffffffffffffffffffffffff021916908373ffffffffffffffffffffffffffffffffffffffff16021790555050505050565b61129b8383836114c3565b61134f57600073ffffffffffffffffffffffffffffffffffffffff168373ffffffffffffffffffffffffffffffffffffffff160361131057806040517f7e27328900000000000000000000000000000000000000000000000000000000815260040161130791906119b8565b60405180910390fd5b81816040517f177e802f000000000000000000000000000000000000000000000000000000008152600401611346929190611f23565b60405180910390fd5b505050565b61135e8383611584565b61136b6000848484610df2565b505050565b600080600090507a184f03e93ff9f4daa797ed6e38ed64bf6a1f01000000000000000083106113ce577a184f03e93ff9f4daa797ed6e38ed64bf6a1f01000000000000000083816113c4576113c3611ef4565b5b0492506040810190505b6d04ee2d6d415b85acef8100000000831061140b576d04ee2d6d415b85acef8100000000838161140157611400611ef4565b5b0492506020810190505b662386f26fc10000831061143a57662386f26fc1000083816114305761142f611ef4565b5b0492506010810190505b6305f5e1008310611463576305f5e100838161145957611458611ef4565b5b0492506008810190505b612710831061148857612710838161147e5761147d611ef4565b5b0492506004810190505b606483106114ab57606483816114a1576114a0611ef4565b5b0492506002810190505b600a83106114ba576001810190505b80915050919050565b60008073ffffffffffffffffffffffffffffffffffffffff168373ffffffffffffffffffffffffffffffffffffffff161415801561157b57508273ffffffffffffffffffffffffffffffffffffffff168473ffffffffffffffffffffffffffffffffffffffff16148061153c575061153b848461086e565b5b8061157a57508273ffffffffffffffffffffffffffffffffffffffff16611562836109f4565b73ffffffffffffffffffffffffffffffffffffffff16145b5b90509392505050565b600073ffffffffffffffffffffffffffffffffffffffff168273ffffffffffffffffffffffffffffffffffffffff16036115f65760006040517f64a0ae920000000000000000000000000000000000000000000000000000000081526004016115ed91906118a2565b60405180910390fd5b600061160483836000610a4b565b9050600073ffffffffffffffffffffffffffffffffffffffff168173ffffffffffffffffffffffffffffffffffffffff16146116785760006040517f73c6ac6e00000000000000000000000000000000000000000000000000000000815260040161166f91906118a2565b60405180910390fd5b505050565b6000604051905090565b600080fd5b600080fd5b60007fffffffff0000000000000000000000000000000000000000000000000000000082169050919050565b6116c681611691565b81146116d157600080fd5b50565b6000813590506116e3816116bd565b92915050565b6000602082840312156116ff576116fe611687565b5b600061170d848285016116d4565b91505092915050565b60008115159050919050565b61172b81611716565b82525050565b60006020820190506117466000830184611722565b92915050565b600081519050919050565b600082825260208201905092915050565b60005b8381101561178657808201518184015260208101905061176b565b60008484015250505050565b6000601f19601f8301169050919050565b60006117ae8261174c565b6117b88185611757565b93506117c8818560208601611768565b6117d181611792565b840191505092915050565b600060208201905081810360008301526117f681846117a3565b905092915050565b6000819050919050565b611811816117fe565b811461181c57600080fd5b50565b60008135905061182e81611808565b92915050565b60006020828403121561184a57611849611687565b5b60006118588482850161181f565b91505092915050565b600073ffffffffffffffffffffffffffffffffffffffff82169050919050565b600061188c82611861565b9050919050565b61189c81611881565b82525050565b60006020820190506118b76000830184611893565b92915050565b6118c681611881565b81146118d157600080fd5b50565b6000813590506118e3816118bd565b92915050565b60008060408385031215611900576118ff611687565b5b600061190e858286016118d4565b925050602061191f8582860161181f565b9150509250929050565b60008060006060848603121561194257611941611687565b5b6000611950868287016118d4565b9350506020611961868287016118d4565b92505060406119728682870161181f565b9150509250925092565b60006020828403121561199257611991611687565b5b60006119a0848285016118d4565b91505092915050565b6119b2816117fe565b82525050565b60006020820190506119cd60008301846119a9565b92915050565b6119dc81611716565b81146119e757600080fd5b50565b6000813590506119f9816119d3565b92915050565b60008060408385031215611a1657611a15611687565b5b6000611a24858286016118d4565b9250506020611a35858286016119ea565b9150509250929050565b600080fd5b600080fd5b7f4e487b7100000000000000000000000000000000000000000000000000000000600052604160045260246000fd5b611a8182611792565b810181811067ffffffffffffffff82111715611aa057611a9f611a49565b5b80604052505050565b6000611ab361167d565b9050611abf8282611a78565b919050565b600067ffffffffffffffff821115611adf57611ade611a49565b5b611ae882611792565b9050602081019050919050565b82818337600083830152505050565b6000611b17611b1284611ac4565b611aa9565b905082815260208101848484011115611b3357611b32611a44565b5b611b3e848285611af5565b509392505050565b600082601f830112611b5b57611b5a611a3f565b5b8135611b6b848260208601611b04565b91505092915050565b60008060008060808587031215611b8e57611b8d611687565b5b6000611b9c878288016118d4565b9450506020611bad878288016118d4565b9350506040611bbe8782880161181f565b925050606085013567ffffffffffffffff811115611bdf57611bde61168c565b5b611beb87828801611b46565b91505092959194509250565b60008060408385031215611c0e57611c0d611687565b5b6000611c1c858286016118d4565b9250506020611c2d858286016118d4565b9150509250929050565b7f4e487b7100000000000000000000000000000000000000000000000000000000600052602260045260246000fd5b60006002820490506001821680611c7e57607f821691505b602082108103611c9157611c90611c37565b5b50919050565b6000606082019050611cac6000830186611893565b611cb960208301856119a9565b611cc66040830184611893565b949350505050565b7f556e6174686f7269736564205573657200000000000000000000000000000000600082015250565b6000611d04601083611757565b9150611d0f82611cce565b602082019050919050565b60006020820190508181036000830152611d3381611cf7565b9050919050565b7f4e487b7100000000000000000000000000000000000000000000000000000000600052601160045260246000fd5b6000611d74826117fe565b91507fffffffffffffffffffffffffffffffffffffffffffffffffffffffffffffffff8203611da657611da5611d3a565b5b600182019050919050565b600081905092915050565b6000611dc78261174c565b611dd18185611db1565b9350611de1818560208601611768565b80840191505092915050565b6000611df98285611dbc565b9150611e058284611dbc565b91508190509392505050565b600081519050919050565b600082825260208201905092915050565b6000611e3882611e11565b611e428185611e1c565b9350611e52818560208601611768565b611e5b81611792565b840191505092915050565b6000608082019050611e7b6000830187611893565b611e886020830186611893565b611e9560408301856119a9565b8181036060830152611ea78184611e2d565b905095945050505050565b600081519050611ec1816116bd565b92915050565b600060208284031215611edd57611edc611687565b5b6000611eeb84828501611eb2565b91505092915050565b7f4e487b7100000000000000000000000000000000000000000000000000000000600052601260045260246000fd5b6000604082019050611f386000830185611893565b611f4560208301846119a9565b939250505056fea264697066735822122032839e8cf0525f0a1e3daa8a596137549d2aa8a9a5f7e82332a204541540888664736f6c63430008180033",
  "linkReferences": {},
  "deployedLinkReferences": {}
}