{
  "_format": "hh-sol-artifact-1",
  "contractName": "EvenStar",
  "sourceName": "contracts/EvenStar.sol",
  "abi": [
    {
      "inputs": [
        {
          "internalType": "address",
          "name": "_evenStarPOA",
          "type": "address"
        },
        {
          "internalType": "address",
          "name": "_paymentToken",
          "type": "address"
        },
        {
          "internalType": "address",
          "name": "_owner",
          "type": "address"
        }
      ],
      "stateMutability": "nonpayable",
      "type": "constructor"
    },
    {
      "anonymous": false,
      "inputs": [
        {
          "indexed": true,
          "internalType": "uint256",
          "name": "eventId",
          "type": "uint256"
        }
      ],
      "name": "EventArchived",
      "type": "event"
    },
    {
      "anonymous": false,
      "inputs": [
        {
          "indexed": true,
          "internalType": "uint256",
          "name": "eventId",
          "type": "uint256"
        },
        {
          "indexed": true,
          "internalType": "string",
          "name": "title",
          "type": "string"
        },
        {
          "indexed": true,
          "internalType": "address",
          "name": "creator",
          "type": "address"
        }
      ],
      "name": "EventCreated",
      "type": "event"
    },
    {
      "anonymous": false,
      "inputs": [
        {
          "indexed": true,
          "internalType": "uint256",
          "name": "eventId",
          "type": "uint256"
        }
      ],
      "name": "EventRemoved",
      "type": "event"
    },
    {
      "anonymous": false,
      "inputs": [
        {
          "indexed": true,
          "internalType": "uint256",
          "name": "eventId",
          "type": "uint256"
        },
        {
          "indexed": true,
          "internalType": "address",
          "name": "userAddress",
          "type": "address"
        }
      ],
      "name": "EventSignup",
      "type": "event"
    },
    {
      "anonymous": false,
      "inputs": [
        {
          "indexed": true,
          "internalType": "address",
          "name": "userAddress",
          "type": "address"
        },
        {
          "indexed": true,
          "internalType": "uint256",
          "name": "userId",
          "type": "uint256"
        }
      ],
      "name": "UserRegistered",
      "type": "event"
    },
    {
      "inputs": [
        {
          "internalType": "uint256",
          "name": "id",
          "type": "uint256"
        }
      ],
      "name": "archiveEvent",
      "outputs": [],
      "stateMutability": "nonpayable",
      "type": "function"
    },
    {
      "inputs": [],
      "name": "checkContractBalance",
      "outputs": [
        {
          "internalType": "uint256",
          "name": "",
          "type": "uint256"
        }
      ],
      "stateMutability": "view",
      "type": "function"
    },
    {
      "inputs": [
        {
          "internalType": "string",
          "name": "_title",
          "type": "string"
        },
        {
          "internalType": "string",
          "name": "_desc",
          "type": "string"
        },
        {
          "internalType": "uint256",
          "name": "_date",
          "type": "uint256"
        },
        {
          "internalType": "uint256",
          "name": "_time",
          "type": "uint256"
        },
        {
          "internalType": "string",
          "name": "_location",
          "type": "string"
        },
        {
          "internalType": "uint256",
          "name": "_duration",
          "type": "uint256"
        },
        {
          "internalType": "string",
          "name": "_url",
          "type": "string"
        },
        {
          "internalType": "uint256",
          "name": "_ticket",
          "type": "uint256"
        }
      ],
      "name": "createEvent",
      "outputs": [],
      "stateMutability": "nonpayable",
      "type": "function"
    },
    {
      "inputs": [
        {
          "internalType": "uint256",
          "name": "id",
          "type": "uint256"
        }
      ],
      "name": "eventSignup",
      "outputs": [],
      "stateMutability": "nonpayable",
      "type": "function"
    },
    {
      "inputs": [
        {
          "internalType": "uint256",
          "name": "id",
          "type": "uint256"
        }
      ],
      "name": "getUser",
      "outputs": [
        {
          "components": [
            {
              "internalType": "uint256",
              "name": "id",
              "type": "uint256"
            },
            {
              "internalType": "address",
              "name": "userAddress",
              "type": "address"
            },
            {
              "internalType": "bool",
              "name": "isRegistered",
              "type": "bool"
            }
          ],
          "internalType": "struct EvenStar.User",
          "name": "",
          "type": "tuple"
        }
      ],
      "stateMutability": "view",
      "type": "function"
    },
    {
      "inputs": [
        {
          "internalType": "address",
          "name": "_address",
          "type": "address"
        }
      ],
      "name": "getUserBalance",
      "outputs": [
        {
          "internalType": "uint256",
          "name": "",
          "type": "uint256"
        }
      ],
      "stateMutability": "view",
      "type": "function"
    },
    {
      "inputs": [],
      "name": "getUserBalance",
      "outputs": [
        {
          "internalType": "uint256",
          "name": "",
          "type": "uint256"
        }
      ],
      "stateMutability": "view",
      "type": "function"
    },
    {
      "inputs": [
        {
          "internalType": "uint256",
          "name": "id",
          "type": "uint256"
        }
      ],
      "name": "proofOfAttendance",
      "outputs": [],
      "stateMutability": "nonpayable",
      "type": "function"
    },
    {
      "inputs": [],
      "name": "registerUser",
      "outputs": [],
      "stateMutability": "nonpayable",
      "type": "function"
    },
    {
      "inputs": [
        {
          "internalType": "uint256",
          "name": "id",
          "type": "uint256"
        }
      ],
      "name": "removeEvent",
      "outputs": [],
      "stateMutability": "nonpayable",
      "type": "function"
    },
    {
      "inputs": [
        {
          "internalType": "uint256",
          "name": "id",
          "type": "uint256"
        },
        {
          "internalType": "string",
          "name": "_title",
          "type": "string"
        }
      ],
      "name": "searchEvent",
      "outputs": [
        {
          "components": [
            {
              "internalType": "uint256",
              "name": "id",
              "type": "uint256"
            },
            {
              "internalType": "string",
              "name": "title",
              "type": "string"
            },
            {
              "internalType": "string",
              "name": "desc",
              "type": "string"
            },
            {
              "internalType": "uint256",
              "name": "date",
              "type": "uint256"
            },
            {
              "internalType": "uint256",
              "name": "time",
              "type": "uint256"
            },
            {
              "internalType": "string",
              "name": "location",
              "type": "string"
            },
            {
              "internalType": "uint256",
              "name": "duration",
              "type": "uint256"
            },
            {
              "internalType": "string",
              "name": "url",
              "type": "string"
            },
            {
              "internalType": "uint256",
              "name": "ticket",
              "type": "uint256"
            },
            {
              "internalType": "bool",
              "name": "isActive",
              "type": "bool"
            },
            {
              "internalType": "address",
              "name": "creator",
              "type": "address"
            }
          ],
          "internalType": "struct EvenStar.Program",
          "name": "",
          "type": "tuple"
        }
      ],
      "stateMutability": "view",
      "type": "function"
    },
    {
      "inputs": [],
      "name": "searchFreeEvents",
      "outputs": [
        {
          "components": [
            {
              "internalType": "uint256",
              "name": "id",
              "type": "uint256"
            },
            {
              "internalType": "string",
              "name": "title",
              "type": "string"
            },
            {
              "internalType": "string",
              "name": "desc",
              "type": "string"
            },
            {
              "internalType": "uint256",
              "name": "date",
              "type": "uint256"
            },
            {
              "internalType": "uint256",
              "name": "time",
              "type": "uint256"
            },
            {
              "internalType": "string",
              "name": "location",
              "type": "string"
            },
            {
              "internalType": "uint256",
              "name": "duration",
              "type": "uint256"
            },
            {
              "internalType": "string",
              "name": "url",
              "type": "string"
            },
            {
              "internalType": "uint256",
              "name": "ticket",
              "type": "uint256"
            },
            {
              "internalType": "bool",
              "name": "isActive",
              "type": "bool"
            },
            {
              "internalType": "address",
              "name": "creator",
              "type": "address"
            }
          ],
          "internalType": "struct EvenStar.Program[]",
          "name": "",
          "type": "tuple[]"
        }
      ],
      "stateMutability": "view",
      "type": "function"
    },
    {
      "inputs": [],
      "name": "searchPaidEvents",
      "outputs": [
        {
          "components": [
            {
              "internalType": "uint256",
              "name": "id",
              "type": "uint256"
            },
            {
              "internalType": "string",
              "name": "title",
              "type": "string"
            },
            {
              "internalType": "string",
              "name": "desc",
              "type": "string"
            },
            {
              "internalType": "uint256",
              "name": "date",
              "type": "uint256"
            },
            {
              "internalType": "uint256",
              "name": "time",
              "type": "uint256"
            },
            {
              "internalType": "string",
              "name": "location",
              "type": "string"
            },
            {
              "internalType": "uint256",
              "name": "duration",
              "type": "uint256"
            },
            {
              "internalType": "string",
              "name": "url",
              "type": "string"
            },
            {
              "internalType": "uint256",
              "name": "ticket",
              "type": "uint256"
            },
            {
              "internalType": "bool",
              "name": "isActive",
              "type": "bool"
            },
            {
              "internalType": "address",
              "name": "creator",
              "type": "address"
            }
          ],
          "internalType": "struct EvenStar.Program[]",
          "name": "",
          "type": "tuple[]"
        }
      ],
      "stateMutability": "view",
      "type": "function"
    },
    {
      "inputs": [
        {
          "internalType": "uint256",
          "name": "id",
          "type": "uint256"
        },
        {
          "internalType": "string",
          "name": "_title",
          "type": "string"
        },
        {
          "internalType": "string",
          "name": "_desc",
          "type": "string"
        },
        {
          "internalType": "uint256",
          "name": "_date",
          "type": "uint256"
        },
        {
          "internalType": "uint256",
          "name": "_time",
          "type": "uint256"
        },
        {
          "internalType": "string",
          "name": "_location",
          "type": "string"
        },
        {
          "internalType": "uint256",
          "name": "_duration",
          "type": "uint256"
        },
        {
          "internalType": "string",
          "name": "_url",
          "type": "string"
        },
        {
          "internalType": "uint256",
          "name": "_ticket",
          "type": "uint256"
        }
      ],
      "name": "updateProgram",
      "outputs": [],
      "stateMutability": "nonpayable",
      "type": "function"
    }
  ],
  "bytecode": "0x60806040523480156200001157600080fd5b50604051620044f3380380620044f383398181016040528101906200003791906200016c565b806000806101000a81548173ffffffffffffffffffffffffffffffffffffffff021916908373ffffffffffffffffffffffffffffffffffffffff16021790555082600160006101000a81548173ffffffffffffffffffffffffffffffffffffffff021916908373ffffffffffffffffffffffffffffffffffffffff16021790555081600260006101000a81548173ffffffffffffffffffffffffffffffffffffffff021916908373ffffffffffffffffffffffffffffffffffffffff160217905550505050620001c8565b600080fd5b600073ffffffffffffffffffffffffffffffffffffffff82169050919050565b6000620001348262000107565b9050919050565b620001468162000127565b81146200015257600080fd5b50565b60008151905062000166816200013b565b92915050565b60008060006060848603121562000188576200018762000102565b5b6000620001988682870162000155565b9350506020620001ab8682870162000155565b9250506040620001be8682870162000155565b9150509250925092565b61431b80620001d86000396000f3fe608060405234801561001057600080fd5b50600436106100ea5760003560e01c806352958be61161008c5780638f08c432116100665780638f08c43214610223578063b0467deb1461023f578063b7013dc11461026f578063f5dad5591461028d576100ea565b806352958be6146101cd57806356164e1e146101e957806367a9797c14610205576100ea565b80634bd7811a116100c85780634bd7811a1461016b5780634c504511146101895780634d3820eb146101a557806350312c9e146101af576100ea565b806307727cb5146100ef578063185a88761461011f578063477348921461013b575b600080fd5b61010960048036038101906101049190612d6f565b6102a9565b6040516101169190612fb9565b60405180910390f35b61013960048036038101906101349190612fdb565b610975565b005b61015560048036038101906101509190613141565b610c7e565b604051610162919061317d565b60405180910390f35b610173610dc5565b604051610180919061335e565b60405180910390f35b6101a3600480360381019061019e9190613380565b611215565b005b6101ad611631565b005b6101b7611932565b6040516101c4919061317d565b60405180910390f35b6101e760048036038101906101e291906134a6565b6119cb565b005b61020360048036038101906101fe91906134a6565b611c43565b005b61020d611de3565b60405161021a919061335e565b60405180910390f35b61023d600480360381019061023891906134a6565b612235565b005b610259600480360381019061025491906134a6565b6124cf565b6040516102669190613515565b60405180910390f35b610277612577565b604051610284919061317d565b60405180910390f35b6102a760048036038101906102a291906134a6565b61262c565b005b6102b1612ad7565b600880549050831080156102e9575082600884815481106102d5576102d4613530565b5b90600052602060002090600a020160000154145b1561060e576008838154811061030257610301613530565b5b90600052602060002090600a020160405180610160016040529081600082015481526020016001820180546103369061358e565b80601f01602080910402602001604051908101604052809291908181526020018280546103629061358e565b80156103af5780601f10610384576101008083540402835291602001916103af565b820191906000526020600020905b81548152906001019060200180831161039257829003601f168201915b505050505081526020016002820180546103c89061358e565b80601f01602080910402602001604051908101604052809291908181526020018280546103f49061358e565b80156104415780601f1061041657610100808354040283529160200191610441565b820191906000526020600020905b81548152906001019060200180831161042457829003601f168201915b50505050508152602001600382015481526020016004820154815260200160058201805461046e9061358e565b80601f016020809104026020016040519081016040528092919081815260200182805461049a9061358e565b80156104e75780601f106104bc576101008083540402835291602001916104e7565b820191906000526020600020905b8154815290600101906020018083116104ca57829003601f168201915b505050505081526020016006820154815260200160078201805461050a9061358e565b80601f01602080910402602001604051908101604052809291908181526020018280546105369061358e565b80156105835780601f1061055857610100808354040283529160200191610583565b820191906000526020600020905b81548152906001019060200180831161056657829003601f168201915b50505050508152602001600882015481526020016009820160009054906101000a900460ff161515151581526020016009820160019054906101000a900473ffffffffffffffffffffffffffffffffffffffff1673ffffffffffffffffffffffffffffffffffffffff1673ffffffffffffffffffffffffffffffffffffffff1681525050905061096f565b60008251111561093457600c8260405161062891906135fb565b9081526020016040518091039020604051806101600160405290816000820154815260200160018201805461065c9061358e565b80601f01602080910402602001604051908101604052809291908181526020018280546106889061358e565b80156106d55780601f106106aa576101008083540402835291602001916106d5565b820191906000526020600020905b8154815290600101906020018083116106b857829003601f168201915b505050505081526020016002820180546106ee9061358e565b80601f016020809104026020016040519081016040528092919081815260200182805461071a9061358e565b80156107675780601f1061073c57610100808354040283529160200191610767565b820191906000526020600020905b81548152906001019060200180831161074a57829003601f168201915b5050505050815260200160038201548152602001600482015481526020016005820180546107949061358e565b80601f01602080910402602001604051908101604052809291908181526020018280546107c09061358e565b801561080d5780601f106107e25761010080835404028352916020019161080d565b820191906000526020600020905b8154815290600101906020018083116107f057829003601f168201915b50505050508152602001600682015481526020016007820180546108309061358e565b80601f016020809104026020016040519081016040528092919081815260200182805461085c9061358e565b80156108a95780601f1061087e576101008083540402835291602001916108a9565b820191906000526020600020905b81548152906001019060200180831161088c57829003601f168201915b50505050508152602001600882015481526020016009820160009054906101000a900460ff161515151581526020016009820160019054906101000a900473ffffffffffffffffffffffffffffffffffffffff1673ffffffffffffffffffffffffffffffffffffffff1673ffffffffffffffffffffffffffffffffffffffff1681525050905061096f565b6040517f08c379a00000000000000000000000000000000000000000000000000000000081526004016109669061366f565b60405180910390fd5b92915050565b60088054905089106109bc576040517f08c379a00000000000000000000000000000000000000000000000000000000081526004016109b3906136db565b60405180910390fd5b600060088a815481106109d2576109d1613530565b5b90600052602060002090600a020190503373ffffffffffffffffffffffffffffffffffffffff168160090160019054906101000a900473ffffffffffffffffffffffffffffffffffffffff1673ffffffffffffffffffffffffffffffffffffffff161480610a8b575060008054906101000a900473ffffffffffffffffffffffffffffffffffffffff1673ffffffffffffffffffffffffffffffffffffffff163373ffffffffffffffffffffffffffffffffffffffff16145b610aca576040517f08c379a0000000000000000000000000000000000000000000000000000000008152600401610ac19061376d565b60405180910390fd5b88816001019081610adb9190613939565b5087816002019081610aed9190613939565b5086816003018190555085816004018190555084816005019081610b119190613939565b5083816006018190555082816007019081610b2c9190613939565b5081816008018190555080600c8a604051610b4791906135fb565b90815260200160405180910390206000820154816000015560018201816001019081610b739190613a21565b5060028201816002019081610b889190613a21565b50600382015481600301556004820154816004015560058201816005019081610bb19190613a21565b506006820154816006015560078201816007019081610bd09190613a21565b50600882015481600801556009820160009054906101000a900460ff168160090160006101000a81548160ff0219169083151502179055506009820160019054906101000a900473ffffffffffffffffffffffffffffffffffffffff168160090160016101000a81548173ffffffffffffffffffffffffffffffffffffffff021916908373ffffffffffffffffffffffffffffffffffffffff16021790555090505050505050505050505050565b60008060009054906101000a900473ffffffffffffffffffffffffffffffffffffffff1673ffffffffffffffffffffffffffffffffffffffff163373ffffffffffffffffffffffffffffffffffffffff1614610d0f576040517f08c379a0000000000000000000000000000000000000000000000000000000008152600401610d0690613b7b565b60405180910390fd5b600073ffffffffffffffffffffffffffffffffffffffff168273ffffffffffffffffffffffffffffffffffffffff1603610d7e576040517f08c379a0000000000000000000000000000000000000000000000000000000008152600401610d7590613be7565b60405180910390fd5b600760008373ffffffffffffffffffffffffffffffffffffffff1673ffffffffffffffffffffffffffffffffffffffff168152602001908152602001600020549050919050565b60606000805b600880549050811015610e2157600060088281548110610dee57610ded613530565b5b90600052602060002090600a02016008015403610e14578180610e1090613c36565b9250505b8080600101915050610dcb565b5060008167ffffffffffffffff811115610e3e57610e3d612c44565b5b604051908082528060200260200182016040528015610e7757816020015b610e64612ad7565b815260200190600190039081610e5c5790505b5090506000805b60088054905081101561120b57600060088281548110610ea157610ea0613530565b5b90600052602060002090600a020160080154036111fe5760088181548110610ecc57610ecb613530565b5b90600052602060002090600a02016040518061016001604052908160008201548152602001600182018054610f009061358e565b80601f0160208091040260200160405190810160405280929190818152602001828054610f2c9061358e565b8015610f795780601f10610f4e57610100808354040283529160200191610f79565b820191906000526020600020905b815481529060010190602001808311610f5c57829003601f168201915b50505050508152602001600282018054610f929061358e565b80601f0160208091040260200160405190810160405280929190818152602001828054610fbe9061358e565b801561100b5780601f10610fe05761010080835404028352916020019161100b565b820191906000526020600020905b815481529060010190602001808311610fee57829003601f168201915b5050505050815260200160038201548152602001600482015481526020016005820180546110389061358e565b80601f01602080910402602001604051908101604052809291908181526020018280546110649061358e565b80156110b15780601f10611086576101008083540402835291602001916110b1565b820191906000526020600020905b81548152906001019060200180831161109457829003601f168201915b50505050508152602001600682015481526020016007820180546110d49061358e565b80601f01602080910402602001604051908101604052809291908181526020018280546111009061358e565b801561114d5780601f106111225761010080835404028352916020019161114d565b820191906000526020600020905b81548152906001019060200180831161113057829003601f168201915b50505050508152602001600882015481526020016009820160009054906101000a900460ff161515151581526020016009820160019054906101000a900473ffffffffffffffffffffffffffffffffffffffff1673ffffffffffffffffffffffffffffffffffffffff1673ffffffffffffffffffffffffffffffffffffffff16815250508383815181106111e4576111e3613530565b5b602002602001018190525081806111fa90613c36565b9250505b8080600101915050610e7e565b5081935050505090565b6000600880549050905060006040518061016001604052808381526020018b81526020018a81526020018981526020018881526020018781526020018681526020018581526020018481526020016001151581526020013373ffffffffffffffffffffffffffffffffffffffff16815250905060088190806001815401808255809150506001900390600052602060002090600a02016000909190919091506000820151816000015560208201518160010190816112d39190613939565b5060408201518160020190816112e99190613939565b50606082015181600301556080820151816004015560a08201518160050190816113139190613939565b5060c0820151816006015560e08201518160070190816113339190613939565b5061010082015181600801556101208201518160090160006101000a81548160ff0219169083151502179055506101408201518160090160016101000a81548173ffffffffffffffffffffffffffffffffffffffff021916908373ffffffffffffffffffffffffffffffffffffffff160217905550505080600b60008481526020019081526020016000206000820151816000015560208201518160010190816113dd9190613939565b5060408201518160020190816113f39190613939565b50606082015181600301556080820151816004015560a082015181600501908161141d9190613939565b5060c0820151816006015560e082015181600701908161143d9190613939565b5061010082015181600801556101208201518160090160006101000a81548160ff0219169083151502179055506101408201518160090160016101000a81548173ffffffffffffffffffffffffffffffffffffffff021916908373ffffffffffffffffffffffffffffffffffffffff16021790555090505080600c8b6040516114c691906135fb565b90815260200160405180910390206000820151816000015560208201518160010190816114f39190613939565b5060408201518160020190816115099190613939565b50606082015181600301556080820151816004015560a08201518160050190816115339190613939565b5060c0820151816006015560e08201518160070190816115539190613939565b5061010082015181600801556101208201518160090160006101000a81548160ff0219169083151502179055506101408201518160090160016101000a81548173ffffffffffffffffffffffffffffffffffffffff021916908373ffffffffffffffffffffffffffffffffffffffff1602179055509050503373ffffffffffffffffffffffffffffffffffffffff168a6040516115f091906135fb565b6040518091039020837f40fb05b814a900c99fa0a76d919dfdeaf3389540e4ca70f97ba40ca9a38f379760405160405180910390a450505050505050505050565b600560003373ffffffffffffffffffffffffffffffffffffffff1673ffffffffffffffffffffffffffffffffffffffff16815260200190815260200160002060010160149054906101000a900460ff16156116c1576040517f08c379a00000000000000000000000000000000000000000000000000000000081526004016116b890613cca565b60405180910390fd5b600060016004805490506116d59190613cea565b9050600060405180606001604052808381526020013373ffffffffffffffffffffffffffffffffffffffff16815260200160011515815250905060048190806001815401808255809150506001900390600052602060002090600202016000909190919091506000820151816000015560208201518160010160006101000a81548173ffffffffffffffffffffffffffffffffffffffff021916908373ffffffffffffffffffffffffffffffffffffffff16021790555060408201518160010160146101000a81548160ff021916908315150217905550505080600560003373ffffffffffffffffffffffffffffffffffffffff1673ffffffffffffffffffffffffffffffffffffffff1681526020019081526020016000206000820151816000015560208201518160010160006101000a81548173ffffffffffffffffffffffffffffffffffffffff021916908373ffffffffffffffffffffffffffffffffffffffff16021790555060408201518160010160146101000a81548160ff02191690831515021790555090505080600660008481526020019081526020016000206000820151816000015560208201518160010160006101000a81548173ffffffffffffffffffffffffffffffffffffffff021916908373ffffffffffffffffffffffffffffffffffffffff16021790555060408201518160010160146101000a81548160ff021916908315150217905550905050813373ffffffffffffffffffffffffffffffffffffffff167fe29d35093005f4d575e1003753426b57a7f64378ba73332eef9c6ccc2b8decd660405160405180910390a35050565b60008060009054906101000a900473ffffffffffffffffffffffffffffffffffffffff1673ffffffffffffffffffffffffffffffffffffffff163373ffffffffffffffffffffffffffffffffffffffff16146119c3576040517f08c379a00000000000000000000000000000000000000000000000000000000081526004016119ba90613b7b565b60405180910390fd5b600354905090565b60008103611a0e576040517f08c379a0000000000000000000000000000000000000000000000000000000008152600401611a0590613d6a565b60405180910390fd5b6008805490508110611a55576040517f08c379a0000000000000000000000000000000000000000000000000000000008152600401611a4c90613dd6565b60405180910390fd5b600e600082815260200190815260200160002060009054906101000a900460ff16611ab5576040517f08c379a0000000000000000000000000000000000000000000000000000000008152600401611aac90613e42565b60405180910390fd5b6000805b600d600084815260200190815260200160002080549050811015611b6f573373ffffffffffffffffffffffffffffffffffffffff16600d60008581526020019081526020016000208281548110611b1357611b12613530565b5b9060005260206000200160009054906101000a900473ffffffffffffffffffffffffffffffffffffffff1673ffffffffffffffffffffffffffffffffffffffff1603611b625760019150611b6f565b8080600101915050611ab9565b5080611bb0576040517f08c379a0000000000000000000000000000000000000000000000000000000008152600401611ba790613eae565b60405180910390fd5b600160009054906101000a900473ffffffffffffffffffffffffffffffffffffffff1673ffffffffffffffffffffffffffffffffffffffff16638577238333846040518363ffffffff1660e01b8152600401611c0d929190613edd565b600060405180830381600087803b158015611c2757600080fd5b505af1158015611c3b573d6000803e3d6000fd5b505050505050565b60008054906101000a900473ffffffffffffffffffffffffffffffffffffffff1673ffffffffffffffffffffffffffffffffffffffff163373ffffffffffffffffffffffffffffffffffffffff1614611cd1576040517f08c379a0000000000000000000000000000000000000000000000000000000008152600401611cc890613b7b565b60405180910390fd5b6008805490508110611d18576040517f08c379a0000000000000000000000000000000000000000000000000000000008152600401611d0f906136db565b60405180910390fd5b60088181548110611d2c57611d2b613530565b5b90600052602060002090600a0201600080820160009055600182016000611d539190612b49565b600282016000611d639190612b49565b60038201600090556004820160009055600582016000611d839190612b49565b6006820160009055600782016000611d9b9190612b49565b60088201600090556009820160006101000a81549060ff02191690556009820160016101000a81549073ffffffffffffffffffffffffffffffffffffffff0219169055505050565b60606000805b600880549050811015611e4057600060088281548110611e0c57611e0b613530565b5b90600052602060002090600a0201600801541115611e33578180611e2f90613c36565b9250505b8080600101915050611de9565b5060008167ffffffffffffffff811115611e5d57611e5c612c44565b5b604051908082528060200260200182016040528015611e9657816020015b611e83612ad7565b815260200190600190039081611e7b5790505b5090506000805b60088054905081101561222b57600060088281548110611ec057611ebf613530565b5b90600052602060002090600a020160080154111561221e5760088181548110611eec57611eeb613530565b5b90600052602060002090600a02016040518061016001604052908160008201548152602001600182018054611f209061358e565b80601f0160208091040260200160405190810160405280929190818152602001828054611f4c9061358e565b8015611f995780601f10611f6e57610100808354040283529160200191611f99565b820191906000526020600020905b815481529060010190602001808311611f7c57829003601f168201915b50505050508152602001600282018054611fb29061358e565b80601f0160208091040260200160405190810160405280929190818152602001828054611fde9061358e565b801561202b5780601f106120005761010080835404028352916020019161202b565b820191906000526020600020905b81548152906001019060200180831161200e57829003601f168201915b5050505050815260200160038201548152602001600482015481526020016005820180546120589061358e565b80601f01602080910402602001604051908101604052809291908181526020018280546120849061358e565b80156120d15780601f106120a6576101008083540402835291602001916120d1565b820191906000526020600020905b8154815290600101906020018083116120b457829003601f168201915b50505050508152602001600682015481526020016007820180546120f49061358e565b80601f01602080910402602001604051908101604052809291908181526020018280546121209061358e565b801561216d5780601f106121425761010080835404028352916020019161216d565b820191906000526020600020905b81548152906001019060200180831161215057829003601f168201915b50505050508152602001600882015481526020016009820160009054906101000a900460ff161515151581526020016009820160019054906101000a900473ffffffffffffffffffffffffffffffffffffffff1673ffffffffffffffffffffffffffffffffffffffff1673ffffffffffffffffffffffffffffffffffffffff168152505083838151811061220457612203613530565b5b6020026020010181905250818061221a90613c36565b9250505b8080600101915050611e9d565b5081935050505090565b60008054906101000a900473ffffffffffffffffffffffffffffffffffffffff1673ffffffffffffffffffffffffffffffffffffffff163373ffffffffffffffffffffffffffffffffffffffff16146122c3576040517f08c379a00000000000000000000000000000000000000000000000000000000081526004016122ba90613b7b565b60405180910390fd5b6000600882815481106122d9576122d8613530565b5b90600052602060002090600a020190508060090160009054906101000a900460ff1661233a576040517f08c379a000000000000000000000000000000000000000000000000000000000815260040161233190613f52565b60405180910390fd5b60098190806001815401808255809150506001900390600052602060002090600a020160009091909190915060008201548160000155600182018160010190816123849190613a21565b50600282018160020190816123999190613a21565b506003820154816003015560048201548160040155600582018160050190816123c29190613a21565b5060068201548160060155600782018160070190816123e19190613a21565b50600882015481600801556009820160009054906101000a900460ff168160090160006101000a81548160ff0219169083151502179055506009820160019054906101000a900473ffffffffffffffffffffffffffffffffffffffff168160090160016101000a81548173ffffffffffffffffffffffffffffffffffffffff021916908373ffffffffffffffffffffffffffffffffffffffff16021790555050506001600a600084815260200190815260200160002060006101000a81548160ff02191690831515021790555060008160090160006101000a81548160ff0219169083151502179055505050565b6124d7612b89565b60066000838152602001908152602001600020604051806060016040529081600082015481526020016001820160009054906101000a900473ffffffffffffffffffffffffffffffffffffffff1673ffffffffffffffffffffffffffffffffffffffff1673ffffffffffffffffffffffffffffffffffffffff1681526020016001820160149054906101000a900460ff1615151515815250509050919050565b60008073ffffffffffffffffffffffffffffffffffffffff163373ffffffffffffffffffffffffffffffffffffffff16036125e7576040517f08c379a00000000000000000000000000000000000000000000000000000000081526004016125de90613be7565b60405180910390fd5b600760003373ffffffffffffffffffffffffffffffffffffffff1673ffffffffffffffffffffffffffffffffffffffff16815260200190815260200160002054905090565b6000810361266f576040517f08c379a000000000000000000000000000000000000000000000000000000000815260040161266690613d6a565b60405180910390fd5b60006008828154811061268557612684613530565b5b90600052602060002090600a020190508060090160009054906101000a900460ff166126e6576040517f08c379a00000000000000000000000000000000000000000000000000000000081526004016126dd90613fbe565b60405180910390fd5b600081600801541115612a1b576000670de0b6b3a7640000826008015461270d9190613fde565b905080600260009054906101000a900473ffffffffffffffffffffffffffffffffffffffff1673ffffffffffffffffffffffffffffffffffffffff166370a08231336040518263ffffffff1660e01b815260040161276b9190614020565b602060405180830381865afa158015612788573d6000803e3d6000fd5b505050506040513d601f19601f820116820180604052508101906127ac9190614050565b10156127ed576040517f08c379a00000000000000000000000000000000000000000000000000000000081526004016127e4906140c9565b60405180910390fd5b600260009054906101000a900473ffffffffffffffffffffffffffffffffffffffff1673ffffffffffffffffffffffffffffffffffffffff166323b872dd3330846040518463ffffffff1660e01b815260040161284c939291906140e9565b6020604051808303816000875af115801561286b573d6000803e3d6000fd5b505050506040513d601f19601f8201168201806040525081019061288f919061414c565b6128ce576040517f08c379a00000000000000000000000000000000000000000000000000000000081526004016128c5906141c5565b60405180910390fd5b600060646063836128df9190613fde565b6128e99190614214565b9050600081836128f99190614245565b9050600260009054906101000a900473ffffffffffffffffffffffffffffffffffffffff1673ffffffffffffffffffffffffffffffffffffffff1663a9059cbb8560090160019054906101000a900473ffffffffffffffffffffffffffffffffffffffff16846040518363ffffffff1660e01b815260040161297c929190613edd565b6020604051808303816000875af115801561299b573d6000803e3d6000fd5b505050506040513d601f19601f820116820180604052508101906129bf919061414c565b6129fe576040517f08c379a00000000000000000000000000000000000000000000000000000000081526004016129f5906142c5565b60405180910390fd5b8060036000828254612a109190613cea565b925050819055505050505b600d6000838152602001908152602001600020339080600181540180825580915050600190039060005260206000200160009091909190916101000a81548173ffffffffffffffffffffffffffffffffffffffff021916908373ffffffffffffffffffffffffffffffffffffffff1602179055503373ffffffffffffffffffffffffffffffffffffffff16827facacbb3ccb9cd7f13b803b9d807125b5220ac8bd9ee5b0d5b24ddd6e9183d0fd60405160405180910390a35050565b604051806101600160405280600081526020016060815260200160608152602001600081526020016000815260200160608152602001600081526020016060815260200160008152602001600015158152602001600073ffffffffffffffffffffffffffffffffffffffff1681525090565b508054612b559061358e565b6000825580601f10612b675750612b86565b601f016020900490600052602060002090810190612b859190612bc2565b5b50565b604051806060016040528060008152602001600073ffffffffffffffffffffffffffffffffffffffff1681526020016000151581525090565b5b80821115612bdb576000816000905550600101612bc3565b5090565b6000604051905090565b600080fd5b600080fd5b6000819050919050565b612c0681612bf3565b8114612c1157600080fd5b50565b600081359050612c2381612bfd565b92915050565b600080fd5b600080fd5b6000601f19601f8301169050919050565b7f4e487b7100000000000000000000000000000000000000000000000000000000600052604160045260246000fd5b612c7c82612c33565b810181811067ffffffffffffffff82111715612c9b57612c9a612c44565b5b80604052505050565b6000612cae612bdf565b9050612cba8282612c73565b919050565b600067ffffffffffffffff821115612cda57612cd9612c44565b5b612ce382612c33565b9050602081019050919050565b82818337600083830152505050565b6000612d12612d0d84612cbf565b612ca4565b905082815260208101848484011115612d2e57612d2d612c2e565b5b612d39848285612cf0565b509392505050565b600082601f830112612d5657612d55612c29565b5b8135612d66848260208601612cff565b91505092915050565b60008060408385031215612d8657612d85612be9565b5b6000612d9485828601612c14565b925050602083013567ffffffffffffffff811115612db557612db4612bee565b5b612dc185828601612d41565b9150509250929050565b612dd481612bf3565b82525050565b600081519050919050565b600082825260208201905092915050565b60005b83811015612e14578082015181840152602081019050612df9565b60008484015250505050565b6000612e2b82612dda565b612e358185612de5565b9350612e45818560208601612df6565b612e4e81612c33565b840191505092915050565b60008115159050919050565b612e6e81612e59565b82525050565b600073ffffffffffffffffffffffffffffffffffffffff82169050919050565b6000612e9f82612e74565b9050919050565b612eaf81612e94565b82525050565b600061016083016000830151612ece6000860182612dcb565b5060208301518482036020860152612ee68282612e20565b91505060408301518482036040860152612f008282612e20565b9150506060830151612f156060860182612dcb565b506080830151612f286080860182612dcb565b5060a083015184820360a0860152612f408282612e20565b91505060c0830151612f5560c0860182612dcb565b5060e083015184820360e0860152612f6d8282612e20565b915050610100830151612f84610100860182612dcb565b50610120830151612f99610120860182612e65565b50610140830151612fae610140860182612ea6565b508091505092915050565b60006020820190508181036000830152612fd38184612eb5565b905092915050565b60008060008060008060008060006101208a8c031215612ffe57612ffd612be9565b5b600061300c8c828d01612c14565b99505060208a013567ffffffffffffffff81111561302d5761302c612bee565b5b6130398c828d01612d41565b98505060408a013567ffffffffffffffff81111561305a57613059612bee565b5b6130668c828d01612d41565b97505060606130778c828d01612c14565b96505060806130888c828d01612c14565b95505060a08a013567ffffffffffffffff8111156130a9576130a8612bee565b5b6130b58c828d01612d41565b94505060c06130c68c828d01612c14565b93505060e08a013567ffffffffffffffff8111156130e7576130e6612bee565b5b6130f38c828d01612d41565b9250506101006131058c828d01612c14565b9150509295985092959850929598565b61311e81612e94565b811461312957600080fd5b50565b60008135905061313b81613115565b92915050565b60006020828403121561315757613156612be9565b5b60006131658482850161312c565b91505092915050565b61317781612bf3565b82525050565b6000602082019050613192600083018461316e565b92915050565b600081519050919050565b600082825260208201905092915050565b6000819050602082019050919050565b6000610160830160008301516131dd6000860182612dcb565b50602083015184820360208601526131f58282612e20565b9150506040830151848203604086015261320f8282612e20565b91505060608301516132246060860182612dcb565b5060808301516132376080860182612dcb565b5060a083015184820360a086015261324f8282612e20565b91505060c083015161326460c0860182612dcb565b5060e083015184820360e086015261327c8282612e20565b915050610100830151613293610100860182612dcb565b506101208301516132a8610120860182612e65565b506101408301516132bd610140860182612ea6565b508091505092915050565b60006132d483836131c4565b905092915050565b6000602082019050919050565b60006132f482613198565b6132fe81856131a3565b935083602082028501613310856131b4565b8060005b8581101561334c578484038952815161332d85826132c8565b9450613338836132dc565b925060208a01995050600181019050613314565b50829750879550505050505092915050565b6000602082019050818103600083015261337881846132e9565b905092915050565b600080600080600080600080610100898b0312156133a1576133a0612be9565b5b600089013567ffffffffffffffff8111156133bf576133be612bee565b5b6133cb8b828c01612d41565b985050602089013567ffffffffffffffff8111156133ec576133eb612bee565b5b6133f88b828c01612d41565b97505060406134098b828c01612c14565b965050606061341a8b828c01612c14565b955050608089013567ffffffffffffffff81111561343b5761343a612bee565b5b6134478b828c01612d41565b94505060a06134588b828c01612c14565b93505060c089013567ffffffffffffffff81111561347957613478612bee565b5b6134858b828c01612d41565b92505060e06134968b828c01612c14565b9150509295985092959890939650565b6000602082840312156134bc576134bb612be9565b5b60006134ca84828501612c14565b91505092915050565b6060820160008201516134e96000850182612dcb565b5060208201516134fc6020850182612ea6565b50604082015161350f6040850182612e65565b50505050565b600060608201905061352a60008301846134d3565b92915050565b7f4e487b7100000000000000000000000000000000000000000000000000000000600052603260045260246000fd5b7f4e487b7100000000000000000000000000000000000000000000000000000000600052602260045260246000fd5b600060028204905060018216806135a657607f821691505b6020821081036135b9576135b861355f565b5b50919050565b600081905092915050565b60006135d582612dda565b6135df81856135bf565b93506135ef818560208601612df6565b80840191505092915050565b600061360782846135ca565b915081905092915050565b600082825260208201905092915050565b7f4576656e74206e6f7420666f756e640000000000000000000000000000000000600082015250565b6000613659600f83613612565b915061366482613623565b602082019050919050565b600060208201905081810360008301526136888161364c565b9050919050565b7f496e76616c69642070726f6772616d2049440000000000000000000000000000600082015250565b60006136c5601283613612565b91506136d08261368f565b602082019050919050565b600060208201905081810360008301526136f4816136b8565b9050919050565b7f596f7520617265206e6f74207468652063726561746f72206f6620746869732060008201527f6576656e74000000000000000000000000000000000000000000000000000000602082015250565b6000613757602583613612565b9150613762826136fb565b604082019050919050565b600060208201905081810360008301526137868161374a565b9050919050565b60008190508160005260206000209050919050565b60006020601f8301049050919050565b600082821b905092915050565b6000600883026137ef7fffffffffffffffffffffffffffffffffffffffffffffffffffffffffffffffff826137b2565b6137f986836137b2565b95508019841693508086168417925050509392505050565b6000819050919050565b600061383661383161382c84612bf3565b613811565b612bf3565b9050919050565b6000819050919050565b6138508361381b565b61386461385c8261383d565b8484546137bf565b825550505050565b600090565b61387961386c565b613884818484613847565b505050565b5b818110156138a85761389d600082613871565b60018101905061388a565b5050565b601f8211156138ed576138be8161378d565b6138c7846137a2565b810160208510156138d6578190505b6138ea6138e2856137a2565b830182613889565b50505b505050565b600082821c905092915050565b6000613910600019846008026138f2565b1980831691505092915050565b600061392983836138ff565b9150826002028217905092915050565b61394282612dda565b67ffffffffffffffff81111561395b5761395a612c44565b5b613965825461358e565b6139708282856138ac565b600060209050601f8311600181146139a35760008415613991578287015190505b61399b858261391d565b865550613a03565b601f1984166139b18661378d565b60005b828110156139d9578489015182556001820191506020850194506020810190506139b4565b868310156139f657848901516139f2601f8916826138ff565b8355505b6001600288020188555050505b505050505050565b600081549050613a1a8161358e565b9050919050565b818103613a2f575050613b07565b613a3882613a0b565b67ffffffffffffffff811115613a5157613a50612c44565b5b613a5b825461358e565b613a668282856138ac565b6000601f831160018114613a955760008415613a83578287015490505b613a8d858261391d565b865550613b00565b601f198416613aa38761378d565b9650613aae8661378d565b60005b82811015613ad657848901548255600182019150600185019450602081019050613ab1565b86831015613af35784890154613aef601f8916826138ff565b8355505b6001600288020188555050505b5050505050505b565b7f4f6e6c79206f776e65722063616e2063616c6c20746869732066756e6374696f60008201527f6e00000000000000000000000000000000000000000000000000000000000000602082015250565b6000613b65602183613612565b9150613b7082613b09565b604082019050919050565b60006020820190508181036000830152613b9481613b58565b9050919050565b7f41646472657373207a65726f2064657465637465640000000000000000000000600082015250565b6000613bd1601583613612565b9150613bdc82613b9b565b602082019050919050565b60006020820190508181036000830152613c0081613bc4565b9050919050565b7f4e487b7100000000000000000000000000000000000000000000000000000000600052601160045260246000fd5b6000613c4182612bf3565b91507fffffffffffffffffffffffffffffffffffffffffffffffffffffffffffffffff8203613c7357613c72613c07565b5b600182019050919050565b7f5573657220616c72656164792072656769737465726564000000000000000000600082015250565b6000613cb4601783613612565b9150613cbf82613c7e565b602082019050919050565b60006020820190508181036000830152613ce381613ca7565b9050919050565b6000613cf582612bf3565b9150613d0083612bf3565b9250828201905080821115613d1857613d17613c07565b5b92915050565b7f496e76616c696420496400000000000000000000000000000000000000000000600082015250565b6000613d54600a83613612565b9150613d5f82613d1e565b602082019050919050565b60006020820190508181036000830152613d8381613d47565b9050919050565b7f496e76616c6964206576656e7420494400000000000000000000000000000000600082015250565b6000613dc0601083613612565b9150613dcb82613d8a565b602082019050919050565b60006020820190508181036000830152613def81613db3565b9050919050565b7f4576656e74206973207374696c6c206f6e676f696e6700000000000000000000600082015250565b6000613e2c601683613612565b9150613e3782613df6565b602082019050919050565b60006020820190508181036000830152613e5b81613e1f565b9050919050565b7f596f7520646964206e6f7420617474656e642074686973206576656e74000000600082015250565b6000613e98601d83613612565b9150613ea382613e62565b602082019050919050565b60006020820190508181036000830152613ec781613e8b565b9050919050565b613ed781612e94565b82525050565b6000604082019050613ef26000830185613ece565b613eff602083018461316e565b9392505050565b7f50726f6772616d206973206e6f74206163746976650000000000000000000000600082015250565b6000613f3c601583613612565b9150613f4782613f06565b602082019050919050565b60006020820190508181036000830152613f6b81613f2f565b9050919050565b7f4576656e74206973206e6f742061637469766500000000000000000000000000600082015250565b6000613fa8601383613612565b9150613fb382613f72565b602082019050919050565b60006020820190508181036000830152613fd781613f9b565b9050919050565b6000613fe982612bf3565b9150613ff483612bf3565b925082820261400281612bf3565b9150828204841483151761401957614018613c07565b5b5092915050565b60006020820190506140356000830184613ece565b92915050565b60008151905061404a81612bfd565b92915050565b60006020828403121561406657614065612be9565b5b60006140748482850161403b565b91505092915050565b7f496e73756666696369656e7420746f6b656e2062616c616e6365000000000000600082015250565b60006140b3601a83613612565b91506140be8261407d565b602082019050919050565b600060208201905081810360008301526140e2816140a6565b9050919050565b60006060820190506140fe6000830186613ece565b61410b6020830185613ece565b614118604083018461316e565b949350505050565b61412981612e59565b811461413457600080fd5b50565b60008151905061414681614120565b92915050565b60006020828403121561416257614161612be9565b5b600061417084828501614137565b91505092915050565b7f546f6b656e207472616e73666572206661696c65640000000000000000000000600082015250565b60006141af601583613612565b91506141ba82614179565b602082019050919050565b600060208201905081810360008301526141de816141a2565b9050919050565b7f4e487b7100000000000000000000000000000000000000000000000000000000600052601260045260246000fd5b600061421f82612bf3565b915061422a83612bf3565b92508261423a576142396141e5565b5b828204905092915050565b600061425082612bf3565b915061425b83612bf3565b925082820390508181111561427357614272613c07565b5b92915050565b7f5472616e7366657220746f2063726561746f72206661696c6564000000000000600082015250565b60006142af601a83613612565b91506142ba82614279565b602082019050919050565b600060208201905081810360008301526142de816142a2565b905091905056fea264697066735822122050f5a4608bfa52a2abbe1bbd52088c9aea22f59efea5385c066dc296f5c7fdf964736f6c63430008180033",
  "linkReferences": {},
  "deployedLinkReferences": {}
}